{
  "contractName": "Admin",
  "abi": [
    {
      "constant": true,
      "inputs": [
        {
          "name": "_ballotID",
          "type": "uint256"
        }
      ],
      "name": "getBallotAddressById",
      "outputs": [
        {
          "name": "",
          "type": "address"
        }
      ],
      "payable": false,
      "stateMutability": "view",
      "type": "function"
    },
    {
      "constant": true,
      "inputs": [],
      "name": "owner",
      "outputs": [
        {
          "name": "",
          "type": "address"
        }
      ],
      "payable": false,
      "stateMutability": "view",
      "type": "function"
    },
    {
      "constant": false,
      "inputs": [
        {
          "name": "_candidates",
          "type": "bytes32[]"
        }
      ],
      "name": "initializeCandidatesForAllBallots",
      "outputs": [],
      "payable": false,
      "stateMutability": "nonpayable",
      "type": "function"
    },
    {
      "constant": true,
      "inputs": [],
      "name": "getBallots",
      "outputs": [
        {
          "name": "",
          "type": "address[]"
        }
      ],
      "payable": false,
      "stateMutability": "view",
      "type": "function"
    },
    {
      "constant": false,
      "inputs": [
        {
          "name": "newOwner",
          "type": "address"
        }
      ],
      "name": "transferOwnership",
      "outputs": [],
      "payable": false,
      "stateMutability": "nonpayable",
      "type": "function"
    },
    {
      "constant": false,
      "inputs": [
        {
          "name": "_ballotAddress",
          "type": "address"
        }
      ],
      "name": "addBallot",
      "outputs": [],
      "payable": false,
      "stateMutability": "nonpayable",
      "type": "function"
    },
    {
      "anonymous": false,
      "inputs": [
        {
          "indexed": true,
          "name": "previousOwner",
          "type": "address"
        },
        {
          "indexed": true,
          "name": "newOwner",
          "type": "address"
        }
      ],
      "name": "OwnershipTransferred",
      "type": "event"
    },
    {
      "constant": false,
      "inputs": [
        {
          "name": "_ballotID",
          "type": "uint256"
        },
        {
          "name": "_candidates",
          "type": "bytes32[]"
        }
      ],
      "name": "initializeCandidates",
      "outputs": [],
      "payable": false,
      "stateMutability": "nonpayable",
      "type": "function"
    },
    {
      "constant": false,
      "inputs": [
        {
          "name": "_ballotID",
          "type": "uint256"
        },
        {
          "name": "_voters",
          "type": "uint256[]"
        }
      ],
      "name": "initializeVoters",
      "outputs": [],
      "payable": false,
      "stateMutability": "nonpayable",
      "type": "function"
    },
    {
      "constant": false,
      "inputs": [],
      "name": "countVotes",
      "outputs": [],
      "payable": false,
      "stateMutability": "nonpayable",
      "type": "function"
    }
  ],
  "bytecode": "0x6060604052336000806101000a81548173ffffffffffffffffffffffffffffffffffffffff021916908373ffffffffffffffffffffffffffffffffffffffff160217905550610d15806100536000396000f300606060405260043610610099576000357c0100000000000000000000000000000000000000000000000000000000900463ffffffff1680631237c7da1461009e57806364a6dbc9146101015780638da5cb5b14610164578063afd31b4f146101b9578063b647990a1461021c578063cf20119114610231578063eb87c6dc1461028b578063f2fde38b146102f5578063f8c74afa1461032e575b600080fd5b34156100a957600080fd5b6100ff600480803590602001909190803590602001908201803590602001908080602002602001604051908101604052809392919081815260200183836020028082843782019150505050505091905050610367565b005b341561010c57600080fd5b61012260048080359060200190919050506104c9565b604051808273ffffffffffffffffffffffffffffffffffffffff1673ffffffffffffffffffffffffffffffffffffffff16815260200191505060405180910390f35b341561016f57600080fd5b61017761050d565b604051808273ffffffffffffffffffffffffffffffffffffffff1673ffffffffffffffffffffffffffffffffffffffff16815260200191505060405180910390f35b34156101c457600080fd5b61021a600480803590602001909190803590602001908201803590602001908080602002602001604051908101604052809392919081815260200183836020028082843782019150505050505091905050610532565b005b341561022757600080fd5b61022f610694565b005b341561023c57600080fd5b6102896004808035906020019082018035906020019080806020026020016040519081016040528093929190818152602001838360200280828437820191505050505050919050506107c9565b005b341561029657600080fd5b61029e61094b565b6040518080602001828103825283818151815260200191508051906020019060200280838360005b838110156102e15780820151818401526020810190506102c6565b505050509050019250505060405180910390f35b341561030057600080fd5b61032c600480803573ffffffffffffffffffffffffffffffffffffffff169060200190919050506109df565b005b341561033957600080fd5b610365600480803573ffffffffffffffffffffffffffffffffffffffff16906020019091905050610b34565b005b60008060009054906101000a900473ffffffffffffffffffffffffffffffffffffffff1673ffffffffffffffffffffffffffffffffffffffff163373ffffffffffffffffffffffffffffffffffffffff161415156103c457600080fd5b6001838154811015156103d357fe5b906000526020600020900160009054906101000a900473ffffffffffffffffffffffffffffffffffffffff1690508073ffffffffffffffffffffffffffffffffffffffff1663b5a131da836040518263ffffffff167c01000000000000000000000000000000000000000000000000000000000281526004018080602001828103825283818151815260200191508051906020019060200280838360005b8381101561048c578082015181840152602081019050610471565b5050505090500192505050600060405180830381600087803b15156104b057600080fd5b6102c65a03f115156104c157600080fd5b505050505050565b60006001828154811015156104da57fe5b906000526020600020900160009054906101000a900473ffffffffffffffffffffffffffffffffffffffff169050919050565b6000809054906101000a900473ffffffffffffffffffffffffffffffffffffffff1681565b60008060009054906101000a900473ffffffffffffffffffffffffffffffffffffffff1673ffffffffffffffffffffffffffffffffffffffff163373ffffffffffffffffffffffffffffffffffffffff1614151561058f57600080fd5b60018381548110151561059e57fe5b906000526020600020900160009054906101000a900473ffffffffffffffffffffffffffffffffffffffff1690508073ffffffffffffffffffffffffffffffffffffffff166363bb6999836040518263ffffffff167c01000000000000000000000000000000000000000000000000000000000281526004018080602001828103825283818151815260200191508051906020019060200280838360005b8381101561065757808201518184015260208101905061063c565b5050505090500192505050600060405180830381600087803b151561067b57600080fd5b6102c65a03f1151561068c57600080fd5b505050505050565b6000806000809054906101000a900473ffffffffffffffffffffffffffffffffffffffff1673ffffffffffffffffffffffffffffffffffffffff163373ffffffffffffffffffffffffffffffffffffffff161415156106f257600080fd5b600091505b6001805490508210156107c55760018281548110151561071357fe5b906000526020600020900160009054906101000a900473ffffffffffffffffffffffffffffffffffffffff1690508073ffffffffffffffffffffffffffffffffffffffff1663b647990a6040518163ffffffff167c0100000000000000000000000000000000000000000000000000000000028152600401600060405180830381600087803b15156107a457600080fd5b6102c65a03f115156107b557600080fd5b50505081806001019250506106f7565b5050565b6000806000809054906101000a900473ffffffffffffffffffffffffffffffffffffffff1673ffffffffffffffffffffffffffffffffffffffff163373ffffffffffffffffffffffffffffffffffffffff1614151561082757600080fd5b600091505b6001805490508210156109465760018281548110151561084857fe5b906000526020600020900160009054906101000a900473ffffffffffffffffffffffffffffffffffffffff1690508073ffffffffffffffffffffffffffffffffffffffff166363bb6999846040518263ffffffff167c01000000000000000000000000000000000000000000000000000000000281526004018080602001828103825283818151815260200191508051906020019060200280838360005b838110156109015780820151818401526020810190506108e6565b5050505090500192505050600060405180830381600087803b151561092557600080fd5b6102c65a03f1151561093657600080fd5b505050818060010192505061082c565b505050565b610953610c84565b60018054806020026020016040519081016040528092919081815260200182805480156109d557602002820191906000526020600020905b8160009054906101000a900473ffffffffffffffffffffffffffffffffffffffff1673ffffffffffffffffffffffffffffffffffffffff168152602001906001019080831161098b575b5050505050905090565b6000809054906101000a900473ffffffffffffffffffffffffffffffffffffffff1673ffffffffffffffffffffffffffffffffffffffff163373ffffffffffffffffffffffffffffffffffffffff16141515610a3a57600080fd5b600073ffffffffffffffffffffffffffffffffffffffff168173ffffffffffffffffffffffffffffffffffffffff1614151515610a7657600080fd5b8073ffffffffffffffffffffffffffffffffffffffff166000809054906101000a900473ffffffffffffffffffffffffffffffffffffffff1673ffffffffffffffffffffffffffffffffffffffff167f8be0079c531659141344cd1fd0a4f28419497f9722a3daafe3b4186f6b6457e060405160405180910390a3806000806101000a81548173ffffffffffffffffffffffffffffffffffffffff021916908373ffffffffffffffffffffffffffffffffffffffff16021790555050565b60008060009054906101000a900473ffffffffffffffffffffffffffffffffffffffff1673ffffffffffffffffffffffffffffffffffffffff163373ffffffffffffffffffffffffffffffffffffffff16141515610b9157600080fd5b60018054806001018281610ba59190610c98565b9160005260206000209001600084909190916101000a81548173ffffffffffffffffffffffffffffffffffffffff021916908373ffffffffffffffffffffffffffffffffffffffff160217905550508190508073ffffffffffffffffffffffffffffffffffffffff166380f2ba1d60018080549050036040518263ffffffff167c010000000000000000000000000000000000000000000000000000000002815260040180828152602001915050600060405180830381600087803b1515610c6c57600080fd5b6102c65a03f11515610c7d57600080fd5b5050505050565b602060405190810160405280600081525090565b815481835581811511610cbf57818360005260206000209182019101610cbe9190610cc4565b5b505050565b610ce691905b80821115610ce2576000816000905550600101610cca565b5090565b905600a165627a7a7230582035ecf94c29ea5c0a072194841329779481b36818a7ed5b6971028769088334060029",
  "source": "pragma solidity ^0.4.18;\r\n\r\nimport \"./ownable.sol\";\r\n\r\ncontract BallotInterface {\r\n    function setBallotId(uint _ballotId) public;\r\n    function initializeCandidates(bytes32[] _candidates) public;\r\n    function initializeVoters(uint[] _voters) public;\r\n    function countVotes() public;\r\n}\r\n\r\ncontract Admin is Ownable {\r\n    // Ballot map ballotID(incremental) to ballotAddress\r\n    address[] private ballots;\r\n    \r\n    function addBallot(address _ballotAddress) public onlyOwner {\r\n        ballots.push(_ballotAddress);\r\n        BallotInterface ballotContract = BallotInterface(_ballotAddress);\r\n        ballotContract.setBallotId(ballots.length-1);\r\n    }\r\n\r\n    function getBallots() public view returns (address[]) {\r\n        return ballots;\r\n    }\r\n    \r\n    function getBallotAddressById(uint _ballotID) public view returns (address) {\r\n        return ballots[_ballotID];\r\n    }\r\n    \r\n    function initializeCandidates(uint _ballotID, bytes32[] _candidates) public onlyOwner {\r\n        BallotInterface ballotContract = BallotInterface(ballots[_ballotID]);\r\n        ballotContract.initializeCandidates(_candidates);\r\n    }\r\n\r\n    function initializeCandidatesForAllBallots(bytes32[] _candidates) public onlyOwner {\r\n        for (uint i = 0; i < ballots.length; i++) {\r\n            BallotInterface ballotContract = BallotInterface(ballots[i]);\r\n            \r\n        ballotContract.initializeCandidates(_candidates);\r\n        }\r\n    }\r\n    \r\n    function initializeVoters(uint _ballotID, uint[] _voters) public onlyOwner {\r\n        BallotInterface ballotContract = BallotInterface(ballots[_ballotID]);\r\n        ballotContract.initializeVoters(_voters);\r\n    }\r\n    \r\n    function countVotes() public onlyOwner {\r\n        for (uint i = 0; i < ballots.length; i++) {\r\n            BallotInterface ballotContract = BallotInterface(ballots[i]);\r\n            ballotContract.countVotes();\r\n        }\r\n    }\r\n    \r\n}\r\n",
  "sourcePath": "C:\\Users\\Berk\\voting\\contracts\\admin.sol",
  "compiler": {
    "name": "solc",
    "version": "0.4.19+commit.c4cbbb05.Emscripten.clang"
  },
  "schemaVersion": "1.0.1",
  "updatedAt": "2018-05-07T21:25:36.048Z"
}