{
  "contractName": "Admin",
  "abi": [
    {
      "constant": false,
      "inputs": [
        {
          "name": "_voterId",
          "type": "uint256"
        },
        {
          "name": "_publicKey",
          "type": "bytes"
        }
      ],
      "name": "addPublicKey",
      "outputs": [],
      "payable": false,
      "stateMutability": "nonpayable",
      "type": "function"
    },
    {
      "constant": true,
      "inputs": [
        {
          "name": "_ballotID",
          "type": "uint256"
        }
      ],
      "name": "getBallotAddressById",
      "outputs": [
        {
          "name": "",
          "type": "address"
        }
      ],
      "payable": false,
      "stateMutability": "view",
      "type": "function"
    },
    {
      "constant": true,
      "inputs": [
        {
          "name": "_voterId",
          "type": "uint256"
        }
      ],
      "name": "getPublicKey",
      "outputs": [
        {
          "name": "",
          "type": "bytes"
        }
      ],
      "payable": false,
      "stateMutability": "view",
      "type": "function"
    },
    {
      "constant": true,
      "inputs": [],
      "name": "owner",
      "outputs": [
        {
          "name": "",
          "type": "address"
        }
      ],
      "payable": false,
      "stateMutability": "view",
      "type": "function"
    },
    {
      "constant": false,
      "inputs": [
        {
          "name": "_candidates",
          "type": "bytes32[]"
        }
      ],
      "name": "initializeCandidatesForAllBallots",
      "outputs": [],
      "payable": false,
      "stateMutability": "nonpayable",
      "type": "function"
    },
    {
      "constant": true,
      "inputs": [],
      "name": "getBallots",
      "outputs": [
        {
          "name": "",
          "type": "address[]"
        }
      ],
      "payable": false,
      "stateMutability": "view",
      "type": "function"
    },
    {
      "constant": false,
      "inputs": [
        {
          "name": "newOwner",
          "type": "address"
        }
      ],
      "name": "transferOwnership",
      "outputs": [],
      "payable": false,
      "stateMutability": "nonpayable",
      "type": "function"
    },
    {
      "constant": false,
      "inputs": [
        {
          "name": "_ballotAddress",
          "type": "address"
        }
      ],
      "name": "addBallot",
      "outputs": [],
      "payable": false,
      "stateMutability": "nonpayable",
      "type": "function"
    },
    {
      "anonymous": false,
      "inputs": [
        {
          "indexed": true,
          "name": "previousOwner",
          "type": "address"
        },
        {
          "indexed": true,
          "name": "newOwner",
          "type": "address"
        }
      ],
      "name": "OwnershipTransferred",
      "type": "event"
    },
    {
      "constant": false,
      "inputs": [
        {
          "name": "_ballotID",
          "type": "uint256"
        },
        {
          "name": "_candidates",
          "type": "bytes32[]"
        }
      ],
      "name": "initializeCandidates",
      "outputs": [],
      "payable": false,
      "stateMutability": "nonpayable",
      "type": "function"
    },
    {
      "constant": false,
      "inputs": [
        {
          "name": "_ballotID",
          "type": "uint256"
        },
        {
          "name": "_voters",
          "type": "uint256[]"
        }
      ],
      "name": "initializeVoters",
      "outputs": [],
      "payable": false,
      "stateMutability": "nonpayable",
      "type": "function"
    },
    {
      "constant": false,
      "inputs": [],
      "name": "countVotes",
      "outputs": [],
      "payable": false,
      "stateMutability": "nonpayable",
      "type": "function"
    }
  ],
  "bytecode": "0x6060604052336000806101000a81548173ffffffffffffffffffffffffffffffffffffffff021916908373ffffffffffffffffffffffffffffffffffffffff160217905550611003806100536000396000f3006060604052600436106100af576000357c0100000000000000000000000000000000000000000000000000000000900463ffffffff1680631237c7da146100b457806330ff837b1461011757806364a6dbc91461017d57806375d2c1ce146101e05780638da5cb5b1461027c578063afd31b4f146102d1578063b647990a14610334578063cf20119114610349578063eb87c6dc146103a3578063f2fde38b1461040d578063f8c74afa14610446575b600080fd5b34156100bf57600080fd5b61011560048080359060200190919080359060200190820180359060200190808060200260200160405190810160405280939291908181526020018383602002808284378201915050505050509190505061047f565b005b341561012257600080fd5b61017b600480803590602001909190803590602001908201803590602001908080601f016020809104026020016040519081016040528093929190818152602001838380828437820191505050505050919050506105e1565b005b341561018857600080fd5b61019e6004808035906020019091905050610668565b604051808273ffffffffffffffffffffffffffffffffffffffff1673ffffffffffffffffffffffffffffffffffffffff16815260200191505060405180910390f35b34156101eb57600080fd5b61020160048080359060200190919050506106ac565b6040518080602001828103825283818151815260200191508051906020019080838360005b83811015610241578082015181840152602081019050610226565b50505050905090810190601f16801561026e5780820380516001836020036101000a031916815260200191505b509250505060405180910390f35b341561028757600080fd5b61028f610767565b604051808273ffffffffffffffffffffffffffffffffffffffff1673ffffffffffffffffffffffffffffffffffffffff16815260200191505060405180910390f35b34156102dc57600080fd5b61033260048080359060200190919080359060200190820180359060200190808060200260200160405190810160405280939291908181526020018383602002808284378201915050505050509190505061078c565b005b341561033f57600080fd5b6103476108ee565b005b341561035457600080fd5b6103a1600480803590602001908201803590602001908080602002602001604051908101604052809392919081815260200183836020028082843782019150505050505091905050610a23565b005b34156103ae57600080fd5b6103b6610ba5565b6040518080602001828103825283818151815260200191508051906020019060200280838360005b838110156103f95780820151818401526020810190506103de565b505050509050019250505060405180910390f35b341561041857600080fd5b610444600480803573ffffffffffffffffffffffffffffffffffffffff16906020019091905050610c39565b005b341561045157600080fd5b61047d600480803573ffffffffffffffffffffffffffffffffffffffff16906020019091905050610d8e565b005b60008060009054906101000a900473ffffffffffffffffffffffffffffffffffffffff1673ffffffffffffffffffffffffffffffffffffffff163373ffffffffffffffffffffffffffffffffffffffff161415156104dc57600080fd5b6001838154811015156104eb57fe5b906000526020600020900160009054906101000a900473ffffffffffffffffffffffffffffffffffffffff1690508073ffffffffffffffffffffffffffffffffffffffff1663b5a131da836040518263ffffffff167c01000000000000000000000000000000000000000000000000000000000281526004018080602001828103825283818151815260200191508051906020019060200280838360005b838110156105a4578082015181840152602081019050610589565b5050505090500192505050600060405180830381600087803b15156105c857600080fd5b6102c65a03f115156105d957600080fd5b505050505050565b6000809054906101000a900473ffffffffffffffffffffffffffffffffffffffff1673ffffffffffffffffffffffffffffffffffffffff163373ffffffffffffffffffffffffffffffffffffffff1614151561063c57600080fd5b80600260008481526020019081526020016000209080519060200190610663929190610ede565b505050565b600060018281548110151561067957fe5b906000526020600020900160009054906101000a900473ffffffffffffffffffffffffffffffffffffffff169050919050565b6106b4610f5e565b600260008381526020019081526020016000208054600181600116156101000203166002900480601f01602080910402602001604051908101604052809291908181526020018280546001816001161561010002031660029004801561075b5780601f106107305761010080835404028352916020019161075b565b820191906000526020600020905b81548152906001019060200180831161073e57829003601f168201915b50505050509050919050565b6000809054906101000a900473ffffffffffffffffffffffffffffffffffffffff1681565b60008060009054906101000a900473ffffffffffffffffffffffffffffffffffffffff1673ffffffffffffffffffffffffffffffffffffffff163373ffffffffffffffffffffffffffffffffffffffff161415156107e957600080fd5b6001838154811015156107f857fe5b906000526020600020900160009054906101000a900473ffffffffffffffffffffffffffffffffffffffff1690508073ffffffffffffffffffffffffffffffffffffffff166363bb6999836040518263ffffffff167c01000000000000000000000000000000000000000000000000000000000281526004018080602001828103825283818151815260200191508051906020019060200280838360005b838110156108b1578082015181840152602081019050610896565b5050505090500192505050600060405180830381600087803b15156108d557600080fd5b6102c65a03f115156108e657600080fd5b505050505050565b6000806000809054906101000a900473ffffffffffffffffffffffffffffffffffffffff1673ffffffffffffffffffffffffffffffffffffffff163373ffffffffffffffffffffffffffffffffffffffff1614151561094c57600080fd5b600091505b600180549050821015610a1f5760018281548110151561096d57fe5b906000526020600020900160009054906101000a900473ffffffffffffffffffffffffffffffffffffffff1690508073ffffffffffffffffffffffffffffffffffffffff1663b647990a6040518163ffffffff167c0100000000000000000000000000000000000000000000000000000000028152600401600060405180830381600087803b15156109fe57600080fd5b6102c65a03f11515610a0f57600080fd5b5050508180600101925050610951565b5050565b6000806000809054906101000a900473ffffffffffffffffffffffffffffffffffffffff1673ffffffffffffffffffffffffffffffffffffffff163373ffffffffffffffffffffffffffffffffffffffff16141515610a8157600080fd5b600091505b600180549050821015610ba057600182815481101515610aa257fe5b906000526020600020900160009054906101000a900473ffffffffffffffffffffffffffffffffffffffff1690508073ffffffffffffffffffffffffffffffffffffffff166363bb6999846040518263ffffffff167c01000000000000000000000000000000000000000000000000000000000281526004018080602001828103825283818151815260200191508051906020019060200280838360005b83811015610b5b578082015181840152602081019050610b40565b5050505090500192505050600060405180830381600087803b1515610b7f57600080fd5b6102c65a03f11515610b9057600080fd5b5050508180600101925050610a86565b505050565b610bad610f72565b6001805480602002602001604051908101604052809291908181526020018280548015610c2f57602002820191906000526020600020905b8160009054906101000a900473ffffffffffffffffffffffffffffffffffffffff1673ffffffffffffffffffffffffffffffffffffffff1681526020019060010190808311610be5575b5050505050905090565b6000809054906101000a900473ffffffffffffffffffffffffffffffffffffffff1673ffffffffffffffffffffffffffffffffffffffff163373ffffffffffffffffffffffffffffffffffffffff16141515610c9457600080fd5b600073ffffffffffffffffffffffffffffffffffffffff168173ffffffffffffffffffffffffffffffffffffffff1614151515610cd057600080fd5b8073ffffffffffffffffffffffffffffffffffffffff166000809054906101000a900473ffffffffffffffffffffffffffffffffffffffff1673ffffffffffffffffffffffffffffffffffffffff167f8be0079c531659141344cd1fd0a4f28419497f9722a3daafe3b4186f6b6457e060405160405180910390a3806000806101000a81548173ffffffffffffffffffffffffffffffffffffffff021916908373ffffffffffffffffffffffffffffffffffffffff16021790555050565b60008060009054906101000a900473ffffffffffffffffffffffffffffffffffffffff1673ffffffffffffffffffffffffffffffffffffffff163373ffffffffffffffffffffffffffffffffffffffff16141515610deb57600080fd5b60018054806001018281610dff9190610f86565b9160005260206000209001600084909190916101000a81548173ffffffffffffffffffffffffffffffffffffffff021916908373ffffffffffffffffffffffffffffffffffffffff160217905550508190508073ffffffffffffffffffffffffffffffffffffffff166380f2ba1d60018080549050036040518263ffffffff167c010000000000000000000000000000000000000000000000000000000002815260040180828152602001915050600060405180830381600087803b1515610ec657600080fd5b6102c65a03f11515610ed757600080fd5b5050505050565b828054600181600116156101000203166002900490600052602060002090601f016020900481019282601f10610f1f57805160ff1916838001178555610f4d565b82800160010185558215610f4d579182015b82811115610f4c578251825591602001919060010190610f31565b5b509050610f5a9190610fb2565b5090565b602060405190810160405280600081525090565b602060405190810160405280600081525090565b815481835581811511610fad57818360005260206000209182019101610fac9190610fb2565b5b505050565b610fd491905b80821115610fd0576000816000905550600101610fb8565b5090565b905600a165627a7a72305820e4f85eb7757ebd44121d7b28fe07b7aa808d143fa1650a38364751f3c39466230029",
  "source": "pragma solidity ^0.4.18;\r\n\r\nimport \"./ownable.sol\";\r\n\r\ncontract BallotInterface {\r\n    function setBallotId(uint _ballotId) public;\r\n    function initializeCandidates(bytes32[] _candidates) public;\r\n    function initializeVoters(uint[] _voters) public;\r\n    function countVotes() public;\r\n}\r\n\r\ncontract Admin is Ownable {\r\n    // Ballot map ballotID(incremental) to ballotAddress\r\n    address[] private ballots;\r\n\r\n    // PublicKeys is a map. Key: voter id, Value: public key\r\n    mapping (uint => bytes) private publicKeys;\r\n\r\n    function addPublicKey(uint _voterId, bytes _publicKey) public onlyOwner {\r\n        publicKeys[_voterId] = _publicKey;\r\n    }\r\n\r\n    function getPublicKey(uint _voterId) public view returns (bytes) {\r\n        return publicKeys[_voterId];\r\n    }\r\n    \r\n    function addBallot(address _ballotAddress) public onlyOwner {\r\n        ballots.push(_ballotAddress);\r\n        BallotInterface ballotContract = BallotInterface(_ballotAddress);\r\n        ballotContract.setBallotId(ballots.length-1);\r\n    }\r\n\r\n    function getBallots() public view returns (address[]) {\r\n        return ballots;\r\n    }\r\n    \r\n    function getBallotAddressById(uint _ballotID) public view returns (address) {\r\n        return ballots[_ballotID];\r\n    }\r\n    \r\n    function initializeCandidates(uint _ballotID, bytes32[] _candidates) public onlyOwner {\r\n        BallotInterface ballotContract = BallotInterface(ballots[_ballotID]);\r\n        ballotContract.initializeCandidates(_candidates);\r\n    }\r\n\r\n    function initializeCandidatesForAllBallots(bytes32[] _candidates) public onlyOwner {\r\n        for (uint i = 0; i < ballots.length; i++) {\r\n            BallotInterface ballotContract = BallotInterface(ballots[i]);\r\n            \r\n        ballotContract.initializeCandidates(_candidates);\r\n        }\r\n    }\r\n    \r\n    function initializeVoters(uint _ballotID, uint[] _voters) public onlyOwner {\r\n        BallotInterface ballotContract = BallotInterface(ballots[_ballotID]);\r\n        ballotContract.initializeVoters(_voters);\r\n    }\r\n    \r\n    function countVotes() public onlyOwner {\r\n        for (uint i = 0; i < ballots.length; i++) {\r\n            BallotInterface ballotContract = BallotInterface(ballots[i]);\r\n            ballotContract.countVotes();\r\n        }\r\n    }\r\n    \r\n}\r\n",
  "sourcePath": "C:\\Users\\Berk\\voting\\contracts\\admin.sol",
  "compiler": {
    "name": "solc",
    "version": "0.4.19+commit.c4cbbb05.Emscripten.clang"
  },
  "schemaVersion": "1.0.1",
  "updatedAt": "2018-05-11T00:27:56.361Z"
}