{
  "contractName": "Admin",
  "abi": [
    {
      "constant": false,
      "inputs": [
        {
          "name": "_voterId",
          "type": "uint256"
        },
        {
          "name": "_publicKey",
          "type": "bytes"
        }
      ],
      "name": "addVoterPublicKey",
      "outputs": [],
      "payable": false,
      "stateMutability": "nonpayable",
      "type": "function"
    },
    {
      "constant": true,
      "inputs": [
        {
          "name": "_ballotID",
          "type": "uint256"
        }
      ],
      "name": "getBallotAddressById",
      "outputs": [
        {
          "name": "",
          "type": "address"
        }
      ],
      "payable": false,
      "stateMutability": "view",
      "type": "function"
    },
    {
      "constant": true,
      "inputs": [],
      "name": "owner",
      "outputs": [
        {
          "name": "",
          "type": "address"
        }
      ],
      "payable": false,
      "stateMutability": "view",
      "type": "function"
    },
    {
      "constant": true,
      "inputs": [
        {
          "name": "_voterId",
          "type": "uint256"
        }
      ],
      "name": "getVoterPublicKey",
      "outputs": [
        {
          "name": "",
          "type": "bytes"
        }
      ],
      "payable": false,
      "stateMutability": "view",
      "type": "function"
    },
    {
      "constant": false,
      "inputs": [
        {
          "name": "_candidates",
          "type": "bytes32[]"
        }
      ],
      "name": "initializeCandidatesForAllBallots",
      "outputs": [],
      "payable": false,
      "stateMutability": "nonpayable",
      "type": "function"
    },
    {
      "constant": false,
      "inputs": [
        {
          "name": "_serverPublicKeyPem",
          "type": "bytes"
        }
      ],
      "name": "setServerPublicKey",
      "outputs": [],
      "payable": false,
      "stateMutability": "nonpayable",
      "type": "function"
    },
    {
      "constant": true,
      "inputs": [],
      "name": "getServerPublicKey",
      "outputs": [
        {
          "name": "",
          "type": "bytes"
        }
      ],
      "payable": false,
      "stateMutability": "view",
      "type": "function"
    },
    {
      "constant": true,
      "inputs": [],
      "name": "getBallots",
      "outputs": [
        {
          "name": "",
          "type": "address[]"
        }
      ],
      "payable": false,
      "stateMutability": "view",
      "type": "function"
    },
    {
      "constant": false,
      "inputs": [
        {
          "name": "newOwner",
          "type": "address"
        }
      ],
      "name": "transferOwnership",
      "outputs": [],
      "payable": false,
      "stateMutability": "nonpayable",
      "type": "function"
    },
    {
      "constant": false,
      "inputs": [
        {
          "name": "_ballotAddress",
          "type": "address"
        }
      ],
      "name": "addBallot",
      "outputs": [],
      "payable": false,
      "stateMutability": "nonpayable",
      "type": "function"
    },
    {
      "anonymous": false,
      "inputs": [
        {
          "indexed": true,
          "name": "previousOwner",
          "type": "address"
        },
        {
          "indexed": true,
          "name": "newOwner",
          "type": "address"
        }
      ],
      "name": "OwnershipTransferred",
      "type": "event"
    },
    {
      "constant": false,
      "inputs": [
        {
          "name": "_ballotID",
          "type": "uint256"
        },
        {
          "name": "_candidates",
          "type": "bytes32[]"
        }
      ],
      "name": "initializeCandidates",
      "outputs": [],
      "payable": false,
      "stateMutability": "nonpayable",
      "type": "function"
    },
    {
      "constant": false,
      "inputs": [
        {
          "name": "_ballotID",
          "type": "uint256"
        },
        {
          "name": "_voters",
          "type": "uint256[]"
        }
      ],
      "name": "initializeVoters",
      "outputs": [],
      "payable": false,
      "stateMutability": "nonpayable",
      "type": "function"
    },
    {
      "constant": false,
      "inputs": [
        {
          "name": "_ballotID",
          "type": "uint256"
        },
        {
          "name": "_voteId",
          "type": "uint256"
        }
      ],
      "name": "setVoteCountedTrue",
      "outputs": [],
      "payable": false,
      "stateMutability": "nonpayable",
      "type": "function"
    },
    {
      "constant": false,
      "inputs": [
        {
          "name": "_ballotID",
          "type": "uint256"
        },
        {
          "name": "_candidateId",
          "type": "uint256"
        }
      ],
      "name": "incrementCandidateVoteCount",
      "outputs": [],
      "payable": false,
      "stateMutability": "nonpayable",
      "type": "function"
    }
  ],
  "bytecode": "0x6060604052336000806101000a81548173ffffffffffffffffffffffffffffffffffffffff021916908373ffffffffffffffffffffffffffffffffffffffff16021790555061137c806100536000396000f3006060604052600436106100d0576000357c0100000000000000000000000000000000000000000000000000000000900463ffffffff1680631237c7da146100d557806332d62e08146101385780633ee767d81461016457806345e632d7146101ca57806364a6dbc9146101f65780638da5cb5b1461025957806392db1ce9146102ae578063afd31b4f1461034a578063cf201191146103ad578063cfede06814610407578063db6d280b14610464578063eb87c6dc146104f2578063f2fde38b1461055c578063f8c74afa14610595575b600080fd5b34156100e057600080fd5b6101366004808035906020019091908035906020019082018035906020019080806020026020016040519081016040528093929190818152602001838360200280828437820191505050505050919050506105ce565b005b341561014357600080fd5b6101626004808035906020019091908035906020019091905050610730565b005b341561016f57600080fd5b6101c8600480803590602001909190803590602001908201803590602001908080601f01602080910402602001604051908101604052809392919081815260200183838082843782019150505050505091905050610851565b005b34156101d557600080fd5b6101f460048080359060200190919080359060200190919050506108d8565b005b341561020157600080fd5b61021760048080359060200190919050506109f9565b604051808273ffffffffffffffffffffffffffffffffffffffff1673ffffffffffffffffffffffffffffffffffffffff16815260200191505060405180910390f35b341561026457600080fd5b61026c610a3d565b604051808273ffffffffffffffffffffffffffffffffffffffff1673ffffffffffffffffffffffffffffffffffffffff16815260200191505060405180910390f35b34156102b957600080fd5b6102cf6004808035906020019091905050610a62565b6040518080602001828103825283818151815260200191508051906020019080838360005b8381101561030f5780820151818401526020810190506102f4565b50505050905090810190601f16801561033c5780820380516001836020036101000a031916815260200191505b509250505060405180910390f35b341561035557600080fd5b6103ab600480803590602001909190803590602001908201803590602001908080602002602001604051908101604052809392919081815260200183836020028082843782019150505050505091905050610b1d565b005b34156103b857600080fd5b610405600480803590602001908201803590602001908080602002602001604051908101604052809392919081815260200183836020028082843782019150505050505091905050610c7f565b005b341561041257600080fd5b610462600480803590602001908201803590602001908080601f01602080910402602001604051908101604052809392919081815260200183838082843782019150505050505091905050610e01565b005b341561046f57600080fd5b610477610e76565b6040518080602001828103825283818151815260200191508051906020019080838360005b838110156104b757808201518184015260208101905061049c565b50505050905090810190601f1680156104e45780820380516001836020036101000a031916815260200191505b509250505060405180910390f35b34156104fd57600080fd5b610505610f1e565b6040518080602001828103825283818151815260200191508051906020019060200280838360005b8381101561054857808201518184015260208101905061052d565b505050509050019250505060405180910390f35b341561056757600080fd5b610593600480803573ffffffffffffffffffffffffffffffffffffffff16906020019091905050610fb2565b005b34156105a057600080fd5b6105cc600480803573ffffffffffffffffffffffffffffffffffffffff16906020019091905050611107565b005b60008060009054906101000a900473ffffffffffffffffffffffffffffffffffffffff1673ffffffffffffffffffffffffffffffffffffffff163373ffffffffffffffffffffffffffffffffffffffff1614151561062b57600080fd5b60018381548110151561063a57fe5b906000526020600020900160009054906101000a900473ffffffffffffffffffffffffffffffffffffffff1690508073ffffffffffffffffffffffffffffffffffffffff1663b5a131da836040518263ffffffff167c01000000000000000000000000000000000000000000000000000000000281526004018080602001828103825283818151815260200191508051906020019060200280838360005b838110156106f35780820151818401526020810190506106d8565b5050505090500192505050600060405180830381600087803b151561071757600080fd5b6102c65a03f1151561072857600080fd5b505050505050565b60008060009054906101000a900473ffffffffffffffffffffffffffffffffffffffff1673ffffffffffffffffffffffffffffffffffffffff163373ffffffffffffffffffffffffffffffffffffffff1614151561078d57600080fd5b60018381548110151561079c57fe5b906000526020600020900160009054906101000a900473ffffffffffffffffffffffffffffffffffffffff1690508073ffffffffffffffffffffffffffffffffffffffff166354f5d208836040518263ffffffff167c010000000000000000000000000000000000000000000000000000000002815260040180828152602001915050600060405180830381600087803b151561083857600080fd5b6102c65a03f1151561084957600080fd5b505050505050565b6000809054906101000a900473ffffffffffffffffffffffffffffffffffffffff1673ffffffffffffffffffffffffffffffffffffffff163373ffffffffffffffffffffffffffffffffffffffff161415156108ac57600080fd5b806002600084815260200190815260200160002090805190602001906108d3929190611257565b505050565b60008060009054906101000a900473ffffffffffffffffffffffffffffffffffffffff1673ffffffffffffffffffffffffffffffffffffffff163373ffffffffffffffffffffffffffffffffffffffff1614151561093557600080fd5b60018381548110151561094457fe5b906000526020600020900160009054906101000a900473ffffffffffffffffffffffffffffffffffffffff1690508073ffffffffffffffffffffffffffffffffffffffff1663387f8c1e836040518263ffffffff167c010000000000000000000000000000000000000000000000000000000002815260040180828152602001915050600060405180830381600087803b15156109e057600080fd5b6102c65a03f115156109f157600080fd5b505050505050565b6000600182815481101515610a0a57fe5b906000526020600020900160009054906101000a900473ffffffffffffffffffffffffffffffffffffffff169050919050565b6000809054906101000a900473ffffffffffffffffffffffffffffffffffffffff1681565b610a6a6112d7565b600260008381526020019081526020016000208054600181600116156101000203166002900480601f016020809104026020016040519081016040528092919081815260200182805460018160011615610100020316600290048015610b115780601f10610ae657610100808354040283529160200191610b11565b820191906000526020600020905b815481529060010190602001808311610af457829003601f168201915b50505050509050919050565b60008060009054906101000a900473ffffffffffffffffffffffffffffffffffffffff1673ffffffffffffffffffffffffffffffffffffffff163373ffffffffffffffffffffffffffffffffffffffff16141515610b7a57600080fd5b600183815481101515610b8957fe5b906000526020600020900160009054906101000a900473ffffffffffffffffffffffffffffffffffffffff1690508073ffffffffffffffffffffffffffffffffffffffff166363bb6999836040518263ffffffff167c01000000000000000000000000000000000000000000000000000000000281526004018080602001828103825283818151815260200191508051906020019060200280838360005b83811015610c42578082015181840152602081019050610c27565b5050505090500192505050600060405180830381600087803b1515610c6657600080fd5b6102c65a03f11515610c7757600080fd5b505050505050565b6000806000809054906101000a900473ffffffffffffffffffffffffffffffffffffffff1673ffffffffffffffffffffffffffffffffffffffff163373ffffffffffffffffffffffffffffffffffffffff16141515610cdd57600080fd5b600091505b600180549050821015610dfc57600182815481101515610cfe57fe5b906000526020600020900160009054906101000a900473ffffffffffffffffffffffffffffffffffffffff1690508073ffffffffffffffffffffffffffffffffffffffff166363bb6999846040518263ffffffff167c01000000000000000000000000000000000000000000000000000000000281526004018080602001828103825283818151815260200191508051906020019060200280838360005b83811015610db7578082015181840152602081019050610d9c565b5050505090500192505050600060405180830381600087803b1515610ddb57600080fd5b6102c65a03f11515610dec57600080fd5b5050508180600101925050610ce2565b505050565b6000809054906101000a900473ffffffffffffffffffffffffffffffffffffffff1673ffffffffffffffffffffffffffffffffffffffff163373ffffffffffffffffffffffffffffffffffffffff16141515610e5c57600080fd5b8060039080519060200190610e72929190611257565b5050565b610e7e6112d7565b60038054600181600116156101000203166002900480601f016020809104026020016040519081016040528092919081815260200182805460018160011615610100020316600290048015610f145780601f10610ee957610100808354040283529160200191610f14565b820191906000526020600020905b815481529060010190602001808311610ef757829003601f168201915b5050505050905090565b610f266112eb565b6001805480602002602001604051908101604052809291908181526020018280548015610fa857602002820191906000526020600020905b8160009054906101000a900473ffffffffffffffffffffffffffffffffffffffff1673ffffffffffffffffffffffffffffffffffffffff1681526020019060010190808311610f5e575b5050505050905090565b6000809054906101000a900473ffffffffffffffffffffffffffffffffffffffff1673ffffffffffffffffffffffffffffffffffffffff163373ffffffffffffffffffffffffffffffffffffffff1614151561100d57600080fd5b600073ffffffffffffffffffffffffffffffffffffffff168173ffffffffffffffffffffffffffffffffffffffff161415151561104957600080fd5b8073ffffffffffffffffffffffffffffffffffffffff166000809054906101000a900473ffffffffffffffffffffffffffffffffffffffff1673ffffffffffffffffffffffffffffffffffffffff167f8be0079c531659141344cd1fd0a4f28419497f9722a3daafe3b4186f6b6457e060405160405180910390a3806000806101000a81548173ffffffffffffffffffffffffffffffffffffffff021916908373ffffffffffffffffffffffffffffffffffffffff16021790555050565b60008060009054906101000a900473ffffffffffffffffffffffffffffffffffffffff1673ffffffffffffffffffffffffffffffffffffffff163373ffffffffffffffffffffffffffffffffffffffff1614151561116457600080fd5b6001805480600101828161117891906112ff565b9160005260206000209001600084909190916101000a81548173ffffffffffffffffffffffffffffffffffffffff021916908373ffffffffffffffffffffffffffffffffffffffff160217905550508190508073ffffffffffffffffffffffffffffffffffffffff166380f2ba1d60018080549050036040518263ffffffff167c010000000000000000000000000000000000000000000000000000000002815260040180828152602001915050600060405180830381600087803b151561123f57600080fd5b6102c65a03f1151561125057600080fd5b5050505050565b828054600181600116156101000203166002900490600052602060002090601f016020900481019282601f1061129857805160ff19168380011785556112c6565b828001600101855582156112c6579182015b828111156112c55782518255916020019190600101906112aa565b5b5090506112d3919061132b565b5090565b602060405190810160405280600081525090565b602060405190810160405280600081525090565b81548183558181151161132657818360005260206000209182019101611325919061132b565b5b505050565b61134d91905b80821115611349576000816000905550600101611331565b5090565b905600a165627a7a72305820c13cd01a1fd3af765c1d3a6b239a6e02705d01bcdcbc9f8a77247c8b84326d3a0029",
  "source": "pragma solidity ^0.4.18;\r\n\r\nimport \"./ownable.sol\";\r\n\r\ncontract BallotInterface {\r\n    function setBallotId(uint _ballotId) public;\r\n    function initializeCandidates(bytes32[] _candidates) public;\r\n    function initializeVoters(uint[] _voters) public;\r\n    function setVoteCountedTrue(uint _voteId) public;\r\n    function incrementCandidateVoteCount(uint _candidateId) public;\r\n}\r\n\r\ncontract Admin is Ownable {\r\n    // Ballot map ballotID(incremental) to ballotAddress\r\n    address[] private ballots;\r\n\r\n    // PublicKeys is a map. Key: voter id, Value: public key\r\n    mapping (uint => bytes) private publicKeys;\r\n    \r\n    // Server Public Key\r\n    bytes private serverPublicKeyPem;\r\n\r\n    function addVoterPublicKey(uint _voterId, bytes _publicKey) public onlyOwner {\r\n        publicKeys[_voterId] = _publicKey;\r\n    }\r\n\r\n    function getVoterPublicKey(uint _voterId) public view returns (bytes) {\r\n        return publicKeys[_voterId];\r\n    }\r\n\r\n    function setServerPublicKey(bytes _serverPublicKeyPem) public onlyOwner {\r\n        serverPublicKeyPem = _serverPublicKeyPem;\r\n    }\r\n\r\n    function getServerPublicKey() public view returns (bytes) {\r\n        return serverPublicKeyPem;\r\n    }\r\n    \r\n    function addBallot(address _ballotAddress) public onlyOwner {\r\n        ballots.push(_ballotAddress);\r\n        BallotInterface ballotContract = BallotInterface(_ballotAddress);\r\n        ballotContract.setBallotId(ballots.length-1);\r\n    }\r\n\r\n    function getBallots() public view returns (address[]) {\r\n        return ballots;\r\n    }\r\n    \r\n    function getBallotAddressById(uint _ballotID) public view returns (address) {\r\n        return ballots[_ballotID];\r\n    }\r\n    \r\n    function initializeCandidates(uint _ballotID, bytes32[] _candidates) public onlyOwner {\r\n        BallotInterface ballotContract = BallotInterface(ballots[_ballotID]);\r\n        ballotContract.initializeCandidates(_candidates);\r\n    }\r\n\r\n    function initializeCandidatesForAllBallots(bytes32[] _candidates) public onlyOwner {\r\n        for (uint i = 0; i < ballots.length; i++) {\r\n            BallotInterface ballotContract = BallotInterface(ballots[i]);\r\n            ballotContract.initializeCandidates(_candidates);\r\n        }\r\n    }\r\n    \r\n    function initializeVoters(uint _ballotID, uint[] _voters) public onlyOwner {\r\n        BallotInterface ballotContract = BallotInterface(ballots[_ballotID]);\r\n        ballotContract.initializeVoters(_voters);\r\n    }\r\n\r\n    function setVoteCountedTrue(uint _ballotID, uint _voteId) public onlyOwner {\r\n        BallotInterface ballotContract = BallotInterface(ballots[_ballotID]);\r\n        ballotContract.setVoteCountedTrue(_voteId);\r\n    }\r\n\r\n    function incrementCandidateVoteCount(uint _ballotID, uint _candidateId) public onlyOwner {\r\n        BallotInterface ballotContract = BallotInterface(ballots[_ballotID]);\r\n        ballotContract.incrementCandidateVoteCount(_candidateId);\r\n    }\r\n}\r\n",
  "sourcePath": "C:\\Users\\Berk\\voting\\contracts\\admin.sol",
  "compiler": {
    "name": "solc",
    "version": "0.4.19+commit.c4cbbb05.Emscripten.clang"
  },
  "schemaVersion": "1.0.1",
  "updatedAt": "2018-05-14T14:37:42.726Z"
}