{
  "contractName": "Ballot",
  "abi": [
    {
      "inputs": [
        {
          "name": "_adminAddress",
          "type": "address"
        }
      ],
      "payable": false,
      "stateMutability": "nonpayable",
      "type": "constructor"
    },
    {
      "constant": false,
      "inputs": [
        {
          "name": "_ballotId",
          "type": "uint256"
        }
      ],
      "name": "setBallotId",
      "outputs": [],
      "payable": false,
      "stateMutability": "nonpayable",
      "type": "function"
    },
    {
      "constant": true,
      "inputs": [],
      "name": "getBallotId",
      "outputs": [
        {
          "name": "",
          "type": "uint256"
        }
      ],
      "payable": false,
      "stateMutability": "view",
      "type": "function"
    },
    {
      "constant": false,
      "inputs": [
        {
          "name": "_adminAddress",
          "type": "address"
        }
      ],
      "name": "setAdmin",
      "outputs": [],
      "payable": false,
      "stateMutability": "nonpayable",
      "type": "function"
    },
    {
      "constant": false,
      "inputs": [
        {
          "name": "_candidates",
          "type": "bytes32[]"
        }
      ],
      "name": "initializeCandidates",
      "outputs": [],
      "payable": false,
      "stateMutability": "nonpayable",
      "type": "function"
    },
    {
      "constant": false,
      "inputs": [
        {
          "name": "_voters",
          "type": "uint256[]"
        }
      ],
      "name": "initializeVoters",
      "outputs": [],
      "payable": false,
      "stateMutability": "nonpayable",
      "type": "function"
    },
    {
      "constant": false,
      "inputs": [
        {
          "name": "_voterId",
          "type": "uint256"
        },
        {
          "name": "_encryptedCandidateId",
          "type": "bytes"
        },
        {
          "name": "_signature",
          "type": "bytes"
        }
      ],
      "name": "vote",
      "outputs": [],
      "payable": false,
      "stateMutability": "nonpayable",
      "type": "function"
    },
    {
      "constant": true,
      "inputs": [],
      "name": "getVotesKeys",
      "outputs": [
        {
          "name": "",
          "type": "uint256[]"
        }
      ],
      "payable": false,
      "stateMutability": "view",
      "type": "function"
    },
    {
      "constant": true,
      "inputs": [
        {
          "name": "_voterId",
          "type": "uint256"
        }
      ],
      "name": "getVote",
      "outputs": [
        {
          "name": "",
          "type": "uint256"
        },
        {
          "name": "",
          "type": "bytes"
        },
        {
          "name": "",
          "type": "bytes"
        }
      ],
      "payable": false,
      "stateMutability": "view",
      "type": "function"
    },
    {
      "constant": false,
      "inputs": [
        {
          "name": "_voteId",
          "type": "uint256"
        }
      ],
      "name": "setVoteCountedTrue",
      "outputs": [],
      "payable": false,
      "stateMutability": "nonpayable",
      "type": "function"
    },
    {
      "constant": true,
      "inputs": [
        {
          "name": "_voterId",
          "type": "uint256"
        }
      ],
      "name": "validateVote",
      "outputs": [
        {
          "name": "",
          "type": "bool"
        }
      ],
      "payable": false,
      "stateMutability": "view",
      "type": "function"
    },
    {
      "constant": true,
      "inputs": [
        {
          "name": "_candidateId",
          "type": "uint256"
        }
      ],
      "name": "getCandidateName",
      "outputs": [
        {
          "name": "",
          "type": "bytes32"
        },
        {
          "name": "",
          "type": "uint256"
        }
      ],
      "payable": false,
      "stateMutability": "view",
      "type": "function"
    },
    {
      "constant": false,
      "inputs": [
        {
          "name": "_candidateId",
          "type": "uint256"
        }
      ],
      "name": "incrementCandidateVoteCount",
      "outputs": [],
      "payable": false,
      "stateMutability": "nonpayable",
      "type": "function"
    },
    {
      "constant": true,
      "inputs": [
        {
          "name": "_candidateId",
          "type": "uint256"
        }
      ],
      "name": "getCandidateVoteCount",
      "outputs": [
        {
          "name": "",
          "type": "uint256"
        },
        {
          "name": "",
          "type": "uint256"
        }
      ],
      "payable": false,
      "stateMutability": "view",
      "type": "function"
    },
    {
      "constant": true,
      "inputs": [],
      "name": "getCandidateIdList",
      "outputs": [
        {
          "name": "",
          "type": "uint256[]"
        }
      ],
      "payable": false,
      "stateMutability": "view",
      "type": "function"
    },
    {
      "constant": true,
      "inputs": [],
      "name": "getVotersKeys",
      "outputs": [
        {
          "name": "",
          "type": "uint256[]"
        }
      ],
      "payable": false,
      "stateMutability": "view",
      "type": "function"
    },
    {
      "constant": true,
      "inputs": [
        {
          "name": "_voterId",
          "type": "uint256"
        }
      ],
      "name": "voterExists",
      "outputs": [
        {
          "name": "",
          "type": "bool"
        }
      ],
      "payable": false,
      "stateMutability": "view",
      "type": "function"
    },
    {
      "constant": true,
      "inputs": [
        {
          "name": "_candidateId",
          "type": "uint256"
        }
      ],
      "name": "candidateExists",
      "outputs": [
        {
          "name": "",
          "type": "bool"
        }
      ],
      "payable": false,
      "stateMutability": "view",
      "type": "function"
    }
  ],
  "bytecode": "0x6060604052341561000f57600080fd5b60405160208061129d8339810160405280805190602001909190505080600760016101000a81548173ffffffffffffffffffffffffffffffffffffffff021916908373ffffffffffffffffffffffffffffffffffffffff160217905550506112218061007c6000396000f3006060604052600436106100f1576000357c0100000000000000000000000000000000000000000000000000000000900463ffffffff1680630d93ce87146100f65780632935654214610160578063387f8c1e146101ab5780634676debd146101ce5780634a3b88771461020957806354f5d208146102445780635a55c1f0146102675780635bc903761461037657806362052005146103e057806363bb69991461041b578063704b6c021461047557806380f2ba1d146104ae578063818d9f0f146104d1578063b315c597146104fa578063b5a131da14610538578063d328821a14610592578063e13804a7146105fc575b600080fd5b341561010157600080fd5b610109610642565b6040518080602001828103825283818151815260200191508051906020019060200280838360005b8381101561014c578082015181840152602081019050610131565b505050509050019250505060405180910390f35b341561016b57600080fd5b6101a96004808035906020019091908035906020019082018035906020019190919290803590602001908201803590602001919091929050506106a0565b005b34156101b657600080fd5b6101cc60048080359060200190919050506107d7565b005b34156101d957600080fd5b6101ef60048080359060200190919050506108c9565b604051808215151515815260200191505060405180910390f35b341561021457600080fd5b61022a60048080359060200190919050506108f6565b604051808215151515815260200191505060405180910390f35b341561024f57600080fd5b6102656004808035906020019091905050610956565b005b341561027257600080fd5b61028860048080359060200190919050506109e4565b604051808481526020018060200180602001838103835285818151815260200191508051906020019080838360005b838110156102d25780820151818401526020810190506102b7565b50505050905090810190601f1680156102ff5780820380516001836020036101000a031916815260200191505b50838103825284818151815260200191508051906020019080838360005b8381101561033857808201518184015260208101905061031d565b50505050905090810190601f1680156103655780820380516001836020036101000a031916815260200191505b509550505050505060405180910390f35b341561038157600080fd5b610389610b7e565b6040518080602001828103825283818151815260200191508051906020019060200280838360005b838110156103cc5780820151818401526020810190506103b1565b505050509050019250505060405180910390f35b34156103eb57600080fd5b6104016004808035906020019091905050610bdc565b604051808215151515815260200191505060405180910390f35b341561042657600080fd5b610473600480803590602001908201803590602001908080602002602001604051908101604052809392919081815260200183836020028082843782019150505050505091905050610c36565b005b341561048057600080fd5b6104ac600480803573ffffffffffffffffffffffffffffffffffffffff16906020019091905050610d7f565b005b34156104b957600080fd5b6104cf6004808035906020019091905050610e1f565b005b34156104dc57600080fd5b6104e4610e85565b6040518082815260200191505060405180910390f35b341561050557600080fd5b61051b6004808035906020019091905050610e8f565b604051808381526020018281526020019250505060405180910390f35b341561054357600080fd5b610590600480803590602001908201803590602001908080602002602001604051908101604052809392919081815260200183836020028082843782019150505050505091905050610ebd565b005b341561059d57600080fd5b6105a5611007565b6040518080602001828103825283818151815260200191508051906020019060200280838360005b838110156105e85780820151818401526020810190506105cd565b505050509050019250505060405180910390f35b341561060757600080fd5b61061d6004808035906020019091905050611065565b6040518083600019166000191681526020018281526020019250505060405180910390f35b61064a611093565b600180548060200260200160405190810160405280929190818152602001828054801561069657602002820191906000526020600020905b815481526020019060010190808311610682575b5050505050905090565b6106a985610bdc565b15156106b457600080fd5b60008086815260200190815260200160002060010160009054906101000a900460ff161515156106e357600080fd5b84600560008781526020019081526020016000206000018190555083836005600088815260200190815260200160002060010191906107239291906110a7565b5081816005600088815260200190815260200160002060020191906107499291906110a7565b5060006005600087815260200190815260200160002060030160006101000a81548160ff0219169083151502179055506006805480600101828161078d9190611127565b916000526020600020900160008790919091505550600160008087815260200190815260200160002060010160006101000a81548160ff0219169083151502179055505050505050565b6000600760019054906101000a900473ffffffffffffffffffffffffffffffffffffffff1673ffffffffffffffffffffffffffffffffffffffff163373ffffffffffffffffffffffffffffffffffffffff1614151561083557600080fd5b600090505b600280549050811015610881578160028281548110151561085757fe5b906000526020600020906003020160000154141561087457610881565b808060010191505061083a565b600280549050811415151561089557600080fd5b6002818154811015156108a457fe5b9060005260206000209060030201600201600081548092919060010191905055505050565b60006005600083815260200190815260200160002060030160009054906101000a900460ff169050919050565b600080600090505b600280549050811015610945578260028281548110151561091b57fe5b906000526020600020906003020160000154141561093857610945565b80806001019150506108fe565b600280549050811415915050919050565b600760019054906101000a900473ffffffffffffffffffffffffffffffffffffffff1673ffffffffffffffffffffffffffffffffffffffff163373ffffffffffffffffffffffffffffffffffffffff161415156109b257600080fd5b60016005600083815260200190815260200160002060030160006101000a81548160ff02191690831515021790555050565b60006109ee611153565b6109f6611153565b60056000858152602001908152602001600020600001546005600086815260200190815260200160002060010160056000878152602001908152602001600020600201818054600181600116156101000203166002900480601f016020809104026020016040519081016040528092919081815260200182805460018160011615610100020316600290048015610ace5780601f10610aa357610100808354040283529160200191610ace565b820191906000526020600020905b815481529060010190602001808311610ab157829003601f168201915b50505050509150808054600181600116156101000203166002900480601f016020809104026020016040519081016040528092919081815260200182805460018160011615610100020316600290048015610b6a5780601f10610b3f57610100808354040283529160200191610b6a565b820191906000526020600020905b815481529060010190602001808311610b4d57829003601f168201915b505050505090509250925092509193909250565b610b86611093565b6006805480602002602001604051908101604052809291908181526020018280548015610bd257602002820191906000526020600020905b815481526020019060010190808311610bbe575b5050505050905090565b600080600090505b600180549050811015610c255782600182815481101515610c0157fe5b9060005260206000209001541415610c1857610c25565b8080600101915050610be4565b600180549050811415915050919050565b6000600760019054906101000a900473ffffffffffffffffffffffffffffffffffffffff1673ffffffffffffffffffffffffffffffffffffffff163373ffffffffffffffffffffffffffffffffffffffff16141515610c9457600080fd5b600090505b8151811015610d605760028054806001018281610cb69190611167565b916000526020600020906003020160006060604051908101604052808581526020018686815181101515610ce657fe5b906020019060200201516000191681526020016000815250909190915060008201518160000155602082015181600101906000191690556040820151816002015550505060038054806001018281610d3e9190611127565b9160005260206000209001600083909190915055508080600101915050610c99565b6000600760006101000a81548160ff0219169083151502179055505050565b600760019054906101000a900473ffffffffffffffffffffffffffffffffffffffff1673ffffffffffffffffffffffffffffffffffffffff163373ffffffffffffffffffffffffffffffffffffffff16141515610ddb57600080fd5b80600760016101000a81548173ffffffffffffffffffffffffffffffffffffffff021916908373ffffffffffffffffffffffffffffffffffffffff16021790555050565b600760019054906101000a900473ffffffffffffffffffffffffffffffffffffffff1673ffffffffffffffffffffffffffffffffffffffff163373ffffffffffffffffffffffffffffffffffffffff16141515610e7b57600080fd5b8060088190555050565b6000600854905090565b600080600283815481101515610ea157fe5b9060005260206000209060030201600201548391509150915091565b6000600760019054906101000a900473ffffffffffffffffffffffffffffffffffffffff1673ffffffffffffffffffffffffffffffffffffffff163373ffffffffffffffffffffffffffffffffffffffff16141515610f1b57600080fd5b600090505b8151811015611003578181815181101515610f3757fe5b906020019060200201516000808484815181101515610f5257fe5b9060200190602002015181526020019081526020016000206000018190555060008060008484815181101515610f8457fe5b90602001906020020151815260200190815260200160002060010160006101000a81548160ff02191690831515021790555060018054806001018281610fca9190611127565b916000526020600020900160008484815181101515610fe557fe5b90602001906020020151909190915055508080600101915050610f20565b5050565b61100f611093565b600380548060200260200160405190810160405280929190818152602001828054801561105b57602002820191906000526020600020905b815481526020019060010190808311611047575b5050505050905090565b60008060028381548110151561107757fe5b9060005260206000209060030201600101548391509150915091565b602060405190810160405280600081525090565b828054600181600116156101000203166002900490600052602060002090601f016020900481019282601f106110e857803560ff1916838001178555611116565b82800160010185558215611116579182015b828111156111155782358255916020019190600101906110fa565b5b5090506111239190611199565b5090565b81548183558181151161114e5781836000526020600020918201910161114d9190611199565b5b505050565b602060405190810160405280600081525090565b8154818355818115116111945760030281600302836000526020600020918201910161119391906111be565b5b505050565b6111bb91905b808211156111b757600081600090555060010161119f565b5090565b90565b6111f291905b808211156111ee5760008082016000905560018201600090556002820160009055506003016111c4565b5090565b905600a165627a7a723058208734049398003ba80c057f6052134d15eefb509e9459154139cd6fbd1a7ca8410029",
  "source": "pragma solidity ^0.4.18;\r\n\r\nimport \"./admin.sol\";\r\n\r\ncontract Ballot {\r\n\r\n    struct Voter {\r\n        uint id; // like tc no\r\n        bool voted;  // if true, that person already voted\r\n    }\r\n\r\n    struct Candidate {\r\n        uint id;\r\n        bytes32 name;\r\n        uint voteCount;\r\n    }\r\n\r\n    struct Vote {\r\n        uint voterId; // Who voted\r\n        bytes encryptedCandidateId; // To who\r\n        bytes signature;\r\n        bool counted; // Counted or not\r\n    }\r\n\r\n    // Voter map. id to Voter object\r\n    mapping (uint => Voter) private voters;\r\n    uint[] private votersKeys;\r\n\r\n    // Candidate array\r\n    Candidate[] private candidates;\r\n    uint[] private candidateIdList;\r\n    uint[] private results;\r\n\r\n    // Vote array\r\n    mapping (uint => Vote) private votes;\r\n    uint[] private votesKeys;\r\n\r\n    // Voting done or not\r\n    bool private counted;\r\n    \r\n    // Admin address\r\n    address private admin;\r\n    \r\n    // ID of the ballot\r\n    uint private ballotId;\r\n\r\n    // Function modifier to restrict function calls only to Admin\r\n    modifier onlyAdmin() {\r\n        require(msg.sender == admin);\r\n        _;\r\n    }\r\n\r\n    function Ballot(address _adminAddress) public {\r\n        admin = _adminAddress;\r\n    }\r\n    \r\n    function setBallotId(uint _ballotId) public onlyAdmin {\r\n        ballotId = _ballotId;\r\n    }\r\n    \r\n    function getBallotId() public view returns (uint) {\r\n        return ballotId;\r\n    }\r\n    \r\n    function setAdmin(address _adminAddress) public onlyAdmin {\r\n        admin = _adminAddress;\r\n    }\r\n\r\n    // Admin\r\n    function initializeCandidates(bytes32[] _candidates) public onlyAdmin {\r\n        for (uint i = 0; i < _candidates.length; i++) {\r\n            candidates.push(Candidate({\r\n                id: i, \r\n                name: _candidates[i], \r\n                voteCount: 0\r\n            }));\r\n            candidateIdList.push(i);\r\n        }\r\n        counted = false;\r\n    }\r\n\r\n    // Admin\r\n    function initializeVoters(uint[] _voters) public onlyAdmin {\r\n        for (uint i = 0; i < _voters.length; i++) {\r\n            voters[_voters[i]].id = _voters[i];\r\n            voters[_voters[i]].voted = false;\r\n            votersKeys.push(_voters[i]);\r\n        }\r\n    }\r\n\r\n    // User\r\n    function vote(uint _voterId, bytes _encryptedCandidateId, bytes _signature) external {\r\n        // check if _voterId or _candidateId is exists\r\n        require(voterExists(_voterId));\r\n\r\n        // terminate if voted\r\n        require(!voters[_voterId].voted);\r\n\r\n        // Create new vote\r\n        votes[_voterId].voterId = _voterId;\r\n        votes[_voterId].encryptedCandidateId = _encryptedCandidateId;\r\n        votes[_voterId].signature = _signature;\r\n        votes[_voterId].counted = false;\r\n        votesKeys.push(_voterId);\r\n\r\n        // Mark voter as voted\r\n        voters[_voterId].voted = true;\r\n    }\r\n\r\n    // Return votes' keys\r\n    function getVotesKeys() public view returns (uint[]) {\r\n        return votesKeys;\r\n    }\r\n    \r\n    // Get encrypted and signed Votes\r\n    function getVote(uint _voterId) public view returns (uint, bytes, bytes) {\r\n        return (votes[_voterId].voterId, votes[_voterId].encryptedCandidateId, votes[_voterId].signature);\r\n    }\r\n\r\n    // Set votes counted status to true\r\n    function setVoteCountedTrue(uint _voteId) public onlyAdmin {\r\n        votes[_voteId].counted = true;\r\n    }\r\n\r\n    // Voter's vote counted or not?\r\n    function validateVote(uint _voterId) public view returns (bool) {\r\n        return votes[_voterId].counted;\r\n    }\r\n\r\n    // Return candidate name associated with the given candidate id\r\n    function getCandidateName(uint _candidateId) public view returns (bytes32, uint) {\r\n        return (candidates[_candidateId].name, _candidateId);\r\n    }\r\n\r\n    function incrementCandidateVoteCount(uint _candidateId) public onlyAdmin {\r\n        uint i;\r\n        for (i = 0; i < candidates.length; i++) {\r\n            if (candidates[i].id == _candidateId) {\r\n                break;\r\n            }\r\n        }\r\n        require(i != candidates.length);\r\n\r\n        candidates[i].voteCount++;\r\n    }\r\n\r\n    // Return candidate vote count associated with the given candidate id\r\n    function getCandidateVoteCount(uint _candidateId) public view returns (uint, uint) {\r\n        return (candidates[_candidateId].voteCount, _candidateId);\r\n    }\r\n\r\n    // Return candidate id list\r\n    function getCandidateIdList() public view returns (uint[]) {\r\n        return candidateIdList;\r\n    }\r\n\r\n    // Return voters' keys\r\n    function getVotersKeys() public view returns (uint[]) {\r\n        return votersKeys;\r\n    }\r\n\r\n    // Return true if Voter associated with given voter id is exist\r\n    function voterExists(uint _voterId) public view returns (bool) {\r\n        uint i;\r\n        for (i = 0; i < votersKeys.length; i++) {\r\n            if (votersKeys[i] == _voterId) {\r\n                break;\r\n            }\r\n        }\r\n        return i != votersKeys.length;\r\n    }\r\n\r\n    // Return true if Candidate associated with given candidate id is exist\r\n    function candidateExists(uint _candidateId) public view returns (bool) {\r\n        uint i;\r\n        for (i = 0; i < candidates.length; i++) {\r\n            if (candidates[i].id == _candidateId) {\r\n                break;\r\n            }\r\n        }\r\n        return i != candidates.length;\r\n    }\r\n}\r\n",
  "sourcePath": "C:\\Users\\Berk\\voting\\contracts\\ballot.sol",
  "compiler": {
    "name": "solc",
    "version": "0.4.19+commit.c4cbbb05.Emscripten.clang"
  },
  "schemaVersion": "1.0.1",
  "updatedAt": "2018-05-14T14:37:42.731Z"
}