{
  "contractName": "Ballot",
  "abi": [
    {
      "constant": true,
      "inputs": [],
      "name": "owner",
      "outputs": [
        {
          "name": "",
          "type": "address"
        }
      ],
      "payable": false,
      "stateMutability": "view",
      "type": "function"
    },
    {
      "constant": false,
      "inputs": [
        {
          "name": "newOwner",
          "type": "address"
        }
      ],
      "name": "transferOwnership",
      "outputs": [],
      "payable": false,
      "stateMutability": "nonpayable",
      "type": "function"
    },
    {
      "anonymous": false,
      "inputs": [
        {
          "indexed": true,
          "name": "previousOwner",
          "type": "address"
        },
        {
          "indexed": true,
          "name": "newOwner",
          "type": "address"
        }
      ],
      "name": "OwnershipTransferred",
      "type": "event"
    },
    {
      "constant": false,
      "inputs": [
        {
          "name": "_candidates",
          "type": "bytes32[]"
        }
      ],
      "name": "initializeCandidates",
      "outputs": [],
      "payable": false,
      "stateMutability": "nonpayable",
      "type": "function"
    },
    {
      "constant": false,
      "inputs": [
        {
          "name": "_voters",
          "type": "uint256[]"
        }
      ],
      "name": "initializeVoters",
      "outputs": [],
      "payable": false,
      "stateMutability": "nonpayable",
      "type": "function"
    },
    {
      "constant": false,
      "inputs": [
        {
          "name": "_voterId",
          "type": "uint256"
        },
        {
          "name": "_candidateId",
          "type": "uint256"
        }
      ],
      "name": "vote",
      "outputs": [],
      "payable": false,
      "stateMutability": "nonpayable",
      "type": "function"
    },
    {
      "constant": false,
      "inputs": [],
      "name": "countVotes",
      "outputs": [],
      "payable": false,
      "stateMutability": "nonpayable",
      "type": "function"
    },
    {
      "constant": true,
      "inputs": [],
      "name": "getResults",
      "outputs": [
        {
          "name": "",
          "type": "uint256[]"
        }
      ],
      "payable": false,
      "stateMutability": "view",
      "type": "function"
    },
    {
      "constant": true,
      "inputs": [
        {
          "name": "_voterId",
          "type": "uint256"
        }
      ],
      "name": "validateVote",
      "outputs": [
        {
          "name": "",
          "type": "bool"
        }
      ],
      "payable": false,
      "stateMutability": "view",
      "type": "function"
    },
    {
      "constant": true,
      "inputs": [
        {
          "name": "_candidateId",
          "type": "uint256"
        }
      ],
      "name": "getCandidateName",
      "outputs": [
        {
          "name": "",
          "type": "bytes32"
        }
      ],
      "payable": false,
      "stateMutability": "view",
      "type": "function"
    },
    {
      "constant": true,
      "inputs": [],
      "name": "getCandidateIdList",
      "outputs": [
        {
          "name": "",
          "type": "uint256[]"
        }
      ],
      "payable": false,
      "stateMutability": "view",
      "type": "function"
    },
    {
      "constant": true,
      "inputs": [],
      "name": "getVotersKeys",
      "outputs": [
        {
          "name": "",
          "type": "uint256[]"
        }
      ],
      "payable": false,
      "stateMutability": "view",
      "type": "function"
    }
  ],
  "bytecode": "0x6060604052336000806101000a81548173ffffffffffffffffffffffffffffffffffffffff021916908373ffffffffffffffffffffffffffffffffffffffff160217905550610efc806100536000396000f3006060604052600436106100af576000357c0100000000000000000000000000000000000000000000000000000000900463ffffffff1680630d93ce87146100b45780634676debd1461011e5780634717f97c1461015957806363bb6999146101c35780638da5cb5b146101f1578063b384abef14610246578063b5a131da14610272578063b647990a146102cc578063d328821a146102e1578063e13804a71461034b578063f2fde38b1461038a575b600080fd5b34156100bf57600080fd5b6100c76103c3565b6040518080602001828103825283818151815260200191508051906020019060200280838360005b8381101561010a5780820151818401526020810190506100ef565b505050509050019250505060405180910390f35b341561012957600080fd5b61013f6004808035906020019091905050610421565b604051808215151515815260200191505060405180910390f35b341561016457600080fd5b61016c6104ab565b6040518080602001828103825283818151815260200191508051906020019060200280838360005b838110156101af578082015181840152602081019050610194565b505050509050019250505060405180910390f35b34156101ce57600080fd5b6101ef60048080359060200190820180359060200191909192905050610525565b005b34156101fc57600080fd5b610204610671565b604051808273ffffffffffffffffffffffffffffffffffffffff1673ffffffffffffffffffffffffffffffffffffffff16815260200191505060405180910390f35b341561025157600080fd5b6102706004808035906020019091908035906020019091905050610696565b005b341561027d57600080fd5b6102ca6004808035906020019082018035906020019080806020026020016040519081016040528093929190818152602001838360200280828437820191505050505050919050506107f7565b005b34156102d757600080fd5b6102df610942565b005b34156102ec57600080fd5b6102f4610af6565b6040518080602001828103825283818151815260200191508051906020019060200280838360005b8381101561033757808201518184015260208101905061031c565b505050509050019250505060405180910390f35b341561035657600080fd5b61036c6004808035906020019091905050610b54565b60405180826000191660001916815260200191505060405180910390f35b341561039557600080fd5b6103c1600480803573ffffffffffffffffffffffffffffffffffffffff16906020019091905050610b7e565b005b6103cb610d8d565b600280548060200260200160405190810160405280929190818152602001828054801561041757602002820191906000526020600020905b815481526020019060010190808311610403575b5050505050905090565b600080600090505b6006805490508110156104a0578260068281548110151561044657fe5b90600052602060002090600302016000015414156104935760068181548110151561046d57fe5b906000526020600020906003020160020160009054906101000a900460ff1691506104a5565b8080600101915050610429565b600091505b50919050565b6104b3610d8d565b600760009054906101000a900460ff1615156104ce57610522565b600580548060200260200160405190810160405280929190818152602001828054801561051a57602002820191906000526020600020905b815481526020019060010190808311610506575b505050505090505b90565b60008060009054906101000a900473ffffffffffffffffffffffffffffffffffffffff1673ffffffffffffffffffffffffffffffffffffffff163373ffffffffffffffffffffffffffffffffffffffff1614151561058257600080fd5b600090505b8282905081101561065157600380548060010182816105a69190610da1565b9160005260206000209060030201600060606040519081016040528085815260200187878781811015156105d657fe5b9050602002013560001916600019168152602001600081525090919091506000820151816000015560208201518160010190600019169055604082015181600201555050506004805480600101828161062f9190610dd3565b9160005260206000209001600083909190915055508080600101915050610587565b6000600760006101000a81548160ff021916908315150217905550505050565b6000809054906101000a900473ffffffffffffffffffffffffffffffffffffffff1681565b6000809054906101000a900473ffffffffffffffffffffffffffffffffffffffff1673ffffffffffffffffffffffffffffffffffffffff163373ffffffffffffffffffffffffffffffffffffffff161415156106f157600080fd5b6106fa82610cd3565b801561070b575061070a81610d2d565b5b151561071657600080fd5b6001600083815260200190815260200160002060010160009054906101000a900460ff1615151561074657600080fd5b6006805480600101828161075a9190610dff565b91600052602060002090600302016000606060405190810160405280868152602001858152602001600015158152509091909150600082015181600001556020820151816001015560408201518160020160006101000a81548160ff021916908315150217905550505050600180600084815260200190815260200160002060010160006101000a81548160ff0219169083151502179055505050565b60008060009054906101000a900473ffffffffffffffffffffffffffffffffffffffff1673ffffffffffffffffffffffffffffffffffffffff163373ffffffffffffffffffffffffffffffffffffffff1614151561085457600080fd5b600090505b815181101561093e57818181518110151561087057fe5b9060200190602002015160016000848481518110151561088c57fe5b9060200190602002015181526020019081526020016000206000018190555060006001600084848151811015156108bf57fe5b90602001906020020151815260200190815260200160002060010160006101000a81548160ff021916908315150217905550600280548060010182816109059190610dd3565b91600052602060002090016000848481518110151561092057fe5b90602001906020020151909190915055508080600101915050610859565b5050565b60008060009054906101000a900473ffffffffffffffffffffffffffffffffffffffff1673ffffffffffffffffffffffffffffffffffffffff163373ffffffffffffffffffffffffffffffffffffffff1614151561099f57600080fd5b600090505b600680549050811015610a475760036006828154811015156109c257fe5b9060005260206000209060030201600101548154811015156109e057fe5b9060005260206000209060030201600201600081548092919060010191905055506001600682815481101515610a1257fe5b906000526020600020906003020160020160006101000a81548160ff02191690831515021790555080806001019150506109a4565b6001600760006101000a81548160ff021916908315150217905550600090505b600380549050811015610af35760058054806001018281610a889190610dd3565b91600052602060002090016000839091909150555060058054806001018281610ab19190610dd3565b91600052602060002090016000600384815481101515610acd57fe5b906000526020600020906003020160020154909190915055508080600101915050610a67565b50565b610afe610d8d565b6004805480602002602001604051908101604052809291908181526020018280548015610b4a57602002820191906000526020600020905b815481526020019060010190808311610b36575b5050505050905090565b6000600382815481101515610b6557fe5b9060005260206000209060030201600101549050919050565b6000809054906101000a900473ffffffffffffffffffffffffffffffffffffffff1673ffffffffffffffffffffffffffffffffffffffff163373ffffffffffffffffffffffffffffffffffffffff16141515610bd957600080fd5b600073ffffffffffffffffffffffffffffffffffffffff168173ffffffffffffffffffffffffffffffffffffffff1614151515610c1557600080fd5b8073ffffffffffffffffffffffffffffffffffffffff166000809054906101000a900473ffffffffffffffffffffffffffffffffffffffff1673ffffffffffffffffffffffffffffffffffffffff167f8be0079c531659141344cd1fd0a4f28419497f9722a3daafe3b4186f6b6457e060405160405180910390a3806000806101000a81548173ffffffffffffffffffffffffffffffffffffffff021916908373ffffffffffffffffffffffffffffffffffffffff16021790555050565b600080600090505b600280549050811015610d1c5782600282815481101515610cf857fe5b9060005260206000209001541415610d0f57610d1c565b8080600101915050610cdb565b600280549050811415915050919050565b600080600090505b600380549050811015610d7c5782600382815481101515610d5257fe5b9060005260206000209060030201600001541415610d6f57610d7c565b8080600101915050610d35565b600380549050811415915050919050565b602060405190810160405280600081525090565b815481835581811511610dce57600302816003028360005260206000209182019101610dcd9190610e31565b5b505050565b815481835581811511610dfa57818360005260206000209182019101610df99190610e68565b5b505050565b815481835581811511610e2c57600302816003028360005260206000209182019101610e2b9190610e8d565b5b505050565b610e6591905b80821115610e61576000808201600090556001820160009055600282016000905550600301610e37565b5090565b90565b610e8a91905b80821115610e86576000816000905550600101610e6e565b5090565b90565b610ecd91905b80821115610ec95760008082016000905560018201600090556002820160006101000a81549060ff021916905550600301610e93565b5090565b905600a165627a7a723058201783b809870319c2f1a932e8d77cd1ee3632c6f35259ef1b4b84d2ab43c2e5a60029",
  "source": "pragma solidity ^0.4.18;\r\n\r\nimport \"./ownable.sol\";\r\n\r\ncontract Ballot is Ownable {\r\n\r\n    struct Voter {\r\n        uint id; // like tc no\r\n        bool voted;  // if true, that person already voted\r\n    }\r\n\r\n    struct Candidate {\r\n        uint id;\r\n        bytes32 name;\r\n        uint voteCount;\r\n    }\r\n\r\n    struct Vote {\r\n        uint voterId; // Who voted\r\n        uint candidateId; // To who\r\n        bool counted; // Counted or not\r\n    }\r\n\r\n    // Voter map. id to Voter object\r\n    mapping (uint => Voter) private voters;\r\n    uint[] private votersKeys;\r\n\r\n    // Candidate array\r\n    Candidate[] private candidates;\r\n    uint[] private candidateIdList;\r\n    uint[] private results;\r\n\r\n    // Vote array\r\n    Vote[] private votes;\r\n\r\n    // Voting done or not\r\n    bool private counted;\r\n\r\n    // Admin\r\n    function initializeCandidates(bytes32[] _candidates) external onlyOwner {\r\n        for (uint i = 0; i < _candidates.length; i++) {\r\n            candidates.push(Candidate({\r\n                id: i, \r\n                name: _candidates[i], \r\n                voteCount: 0\r\n            }));\r\n            candidateIdList.push(i);\r\n        }\r\n        counted = false;\r\n    }\r\n\r\n    // Admin\r\n    function initializeVoters(uint[] _voters) public onlyOwner {\r\n        for (uint i = 0; i < _voters.length; i++) {\r\n            voters[_voters[i]].id = _voters[i];\r\n            voters[_voters[i]].voted = false;\r\n            votersKeys.push(_voters[i]);\r\n        }\r\n    }\r\n\r\n    // User\r\n    function vote(uint _voterId, uint _candidateId) external onlyOwner {\r\n        // check if _voterId or _candidateId is exists\r\n        require(voterExists(_voterId) && candidateExists(_candidateId));\r\n\r\n        // terminate if voted\r\n        require(!voters[_voterId].voted);\r\n\r\n        // Create new vote\r\n        votes.push(Vote({\r\n                voterId: _voterId, \r\n                candidateId: _candidateId, \r\n                counted: false\r\n            }));\r\n\r\n        // Mark voter as voted\r\n        voters[_voterId].voted = true;\r\n    }\r\n\r\n    // Admin\r\n    function countVotes() public onlyOwner {\r\n        // Update the votecount of candidates and mark votes counted\r\n        for (uint i = 0; i < votes.length; i++) {\r\n            candidates[votes[i].candidateId].voteCount++;\r\n            votes[i].counted = true;\r\n        }\r\n        counted = true;\r\n        // Fill the results array\r\n        for (i = 0; i < candidates.length; i++) {\r\n            results.push(i);\r\n            results.push(candidates[i].voteCount);\r\n        }\r\n    }\r\n\r\n    // Return the results of counting\r\n    function getResults() public view returns (uint[]) {\r\n        if (!counted) {\r\n            return;\r\n        } else {\r\n            return results;\r\n        }\r\n    }\r\n\r\n    // Voter's vote counted or not?\r\n    function validateVote(uint _voterId) public view returns (bool) {\r\n        for (uint i = 0; i < votes.length; i++) {\r\n            if (votes[i].voterId == _voterId) {\r\n                return votes[i].counted;\r\n            }\r\n        }\r\n        return false;\r\n    }\r\n\r\n    // Return candidate name associated with the given candidate id\r\n    function getCandidateName(uint _candidateId) public view returns (bytes32) {\r\n        return candidates[_candidateId].name;\r\n    }\r\n\r\n    // Return candidate id list\r\n    function getCandidateIdList() public view returns (uint[]) {\r\n        return candidateIdList;\r\n    }\r\n\r\n    // Return voters' keys\r\n    function getVotersKeys() public view returns (uint[]) {\r\n        return votersKeys;\r\n    }\r\n\r\n    // Return true if Voter associated with given voter id is exist\r\n    function voterExists(uint _voterId) private view returns (bool) {\r\n        uint i;\r\n        for (i = 0; i < votersKeys.length; i++) {\r\n            if (votersKeys[i] == _voterId) {\r\n                break;\r\n            }\r\n        }\r\n        return i != votersKeys.length;\r\n    }\r\n\r\n    // Return true if Candidate associated with given candidate id is exist\r\n    function candidateExists(uint _candidateId) private view returns (bool) {\r\n        uint i;\r\n        for (i = 0; i < candidates.length; i++) {\r\n            if (candidates[i].id == _candidateId) {\r\n                break;\r\n            }\r\n        }\r\n        return i != candidates.length;\r\n    }\r\n}",
  "sourcePath": "C:\\Users\\Berk\\voting\\contracts\\ballot.sol",
  "compiler": {
    "name": "solc",
    "version": "0.4.19+commit.c4cbbb05.Emscripten.clang"
  },
  "schemaVersion": "1.0.1",
  "updatedAt": "2018-04-22T21:07:24.566Z"
}