{
  "contractName": "Ballot",
  "abi": [
    {
      "constant": true,
      "inputs": [],
      "name": "owner",
      "outputs": [
        {
          "name": "",
          "type": "address"
        }
      ],
      "payable": false,
      "stateMutability": "view",
      "type": "function"
    },
    {
      "constant": false,
      "inputs": [
        {
          "name": "newOwner",
          "type": "address"
        }
      ],
      "name": "transferOwnership",
      "outputs": [],
      "payable": false,
      "stateMutability": "nonpayable",
      "type": "function"
    },
    {
      "inputs": [
        {
          "name": "_adminAddress",
          "type": "address"
        }
      ],
      "payable": false,
      "stateMutability": "nonpayable",
      "type": "constructor"
    },
    {
      "anonymous": false,
      "inputs": [
        {
          "indexed": true,
          "name": "previousOwner",
          "type": "address"
        },
        {
          "indexed": true,
          "name": "newOwner",
          "type": "address"
        }
      ],
      "name": "OwnershipTransferred",
      "type": "event"
    },
    {
      "constant": false,
      "inputs": [
        {
          "name": "_ballotId",
          "type": "uint256"
        }
      ],
      "name": "setBallotId",
      "outputs": [],
      "payable": false,
      "stateMutability": "nonpayable",
      "type": "function"
    },
    {
      "constant": true,
      "inputs": [],
      "name": "getBallotId",
      "outputs": [
        {
          "name": "",
          "type": "uint256"
        }
      ],
      "payable": false,
      "stateMutability": "view",
      "type": "function"
    },
    {
      "constant": false,
      "inputs": [
        {
          "name": "adminAddress",
          "type": "address"
        }
      ],
      "name": "setAdmin",
      "outputs": [],
      "payable": false,
      "stateMutability": "nonpayable",
      "type": "function"
    },
    {
      "constant": false,
      "inputs": [
        {
          "name": "_candidates",
          "type": "bytes32[]"
        }
      ],
      "name": "initializeCandidates",
      "outputs": [],
      "payable": false,
      "stateMutability": "nonpayable",
      "type": "function"
    },
    {
      "constant": false,
      "inputs": [
        {
          "name": "_voters",
          "type": "uint256[]"
        }
      ],
      "name": "initializeVoters",
      "outputs": [],
      "payable": false,
      "stateMutability": "nonpayable",
      "type": "function"
    },
    {
      "constant": false,
      "inputs": [
        {
          "name": "_voterId",
          "type": "uint256"
        },
        {
          "name": "_candidateId",
          "type": "uint256"
        }
      ],
      "name": "vote",
      "outputs": [],
      "payable": false,
      "stateMutability": "nonpayable",
      "type": "function"
    },
    {
      "constant": false,
      "inputs": [],
      "name": "countVotes",
      "outputs": [],
      "payable": false,
      "stateMutability": "nonpayable",
      "type": "function"
    },
    {
      "constant": true,
      "inputs": [],
      "name": "getResults",
      "outputs": [
        {
          "name": "",
          "type": "uint256[]"
        }
      ],
      "payable": false,
      "stateMutability": "view",
      "type": "function"
    },
    {
      "constant": true,
      "inputs": [
        {
          "name": "_voterId",
          "type": "uint256"
        }
      ],
      "name": "validateVote",
      "outputs": [
        {
          "name": "",
          "type": "bool"
        }
      ],
      "payable": false,
      "stateMutability": "view",
      "type": "function"
    },
    {
      "constant": true,
      "inputs": [
        {
          "name": "_candidateId",
          "type": "uint256"
        }
      ],
      "name": "getCandidateName",
      "outputs": [
        {
          "name": "",
          "type": "bytes32"
        },
        {
          "name": "",
          "type": "uint256"
        }
      ],
      "payable": false,
      "stateMutability": "view",
      "type": "function"
    },
    {
      "constant": true,
      "inputs": [
        {
          "name": "_candidateId",
          "type": "uint256"
        }
      ],
      "name": "getCandidateVoteCount",
      "outputs": [
        {
          "name": "",
          "type": "uint256"
        },
        {
          "name": "",
          "type": "uint256"
        }
      ],
      "payable": false,
      "stateMutability": "view",
      "type": "function"
    },
    {
      "constant": true,
      "inputs": [],
      "name": "getCandidateIdList",
      "outputs": [
        {
          "name": "",
          "type": "uint256[]"
        }
      ],
      "payable": false,
      "stateMutability": "view",
      "type": "function"
    },
    {
      "constant": true,
      "inputs": [],
      "name": "getVotersKeys",
      "outputs": [
        {
          "name": "",
          "type": "uint256[]"
        }
      ],
      "payable": false,
      "stateMutability": "view",
      "type": "function"
    },
    {
      "constant": true,
      "inputs": [
        {
          "name": "_voterId",
          "type": "uint256"
        }
      ],
      "name": "voterExists",
      "outputs": [
        {
          "name": "",
          "type": "bool"
        }
      ],
      "payable": false,
      "stateMutability": "view",
      "type": "function"
    },
    {
      "constant": true,
      "inputs": [
        {
          "name": "_candidateId",
          "type": "uint256"
        }
      ],
      "name": "candidateExists",
      "outputs": [
        {
          "name": "",
          "type": "bool"
        }
      ],
      "payable": false,
      "stateMutability": "view",
      "type": "function"
    }
  ],
  "bytecode": "0x6060604052341561000f57600080fd5b6040516020806112a683398101604052808051906020019091905050336000806101000a81548173ffffffffffffffffffffffffffffffffffffffff021916908373ffffffffffffffffffffffffffffffffffffffff16021790555080600760016101000a81548173ffffffffffffffffffffffffffffffffffffffff021916908373ffffffffffffffffffffffffffffffffffffffff160217905550506111ea806100bc6000396000f3006060604052600436106100f1576000357c0100000000000000000000000000000000000000000000000000000000900463ffffffff1680630d93ce87146100f65780634676debd146101605780634717f97c1461019b5780634a3b887714610205578063620520051461024057806363bb69991461027b578063704b6c02146102d557806380f2ba1d1461030e578063818d9f0f146103315780638da5cb5b1461035a578063b315c597146103af578063b384abef146103ed578063b5a131da14610419578063b647990a14610473578063d328821a14610488578063e13804a7146104f2578063f2fde38b14610538575b600080fd5b341561010157600080fd5b610109610571565b6040518080602001828103825283818151815260200191508051906020019060200280838360005b8381101561014c578082015181840152602081019050610131565b505050509050019250505060405180910390f35b341561016b57600080fd5b61018160048080359060200190919050506105cf565b604051808215151515815260200191505060405180910390f35b34156101a657600080fd5b6101ae610659565b6040518080602001828103825283818151815260200191508051906020019060200280838360005b838110156101f15780820151818401526020810190506101d6565b505050509050019250505060405180910390f35b341561021057600080fd5b61022660048080359060200190919050506106d3565b604051808215151515815260200191505060405180910390f35b341561024b57600080fd5b6102616004808035906020019091905050610733565b604051808215151515815260200191505060405180910390f35b341561028657600080fd5b6102d360048080359060200190820180359060200190808060200260200160405190810160405280939291908181526020018383602002808284378201915050505050509190505061078d565b005b34156102e057600080fd5b61030c600480803573ffffffffffffffffffffffffffffffffffffffff169060200190919050506108d6565b005b341561031957600080fd5b61032f6004808035906020019091905050610975565b005b341561033c57600080fd5b6103446109db565b6040518082815260200191505060405180910390f35b341561036557600080fd5b61036d6109e5565b604051808273ffffffffffffffffffffffffffffffffffffffff1673ffffffffffffffffffffffffffffffffffffffff16815260200191505060405180910390f35b34156103ba57600080fd5b6103d06004808035906020019091905050610a0a565b604051808381526020018281526020019250505060405180910390f35b34156103f857600080fd5b6104176004808035906020019091908035906020019091905050610a38565b005b341561042457600080fd5b610471600480803590602001908201803590602001908080602002602001604051908101604052809392919081815260200183836020028082843782019150505050505091905050610b99565b005b341561047e57600080fd5b610486610ce5565b005b341561049357600080fd5b61049b610e9a565b6040518080602001828103825283818151815260200191508051906020019060200280838360005b838110156104de5780820151818401526020810190506104c3565b505050509050019250505060405180910390f35b34156104fd57600080fd5b6105136004808035906020019091905050610ef8565b6040518083600019166000191681526020018281526020019250505060405180910390f35b341561054357600080fd5b61056f600480803573ffffffffffffffffffffffffffffffffffffffff16906020019091905050610f26565b005b61057961107b565b60028054806020026020016040519081016040528092919081815260200182805480156105c557602002820191906000526020600020905b8154815260200190600101908083116105b1575b5050505050905090565b600080600090505b60068054905081101561064e57826006828154811015156105f457fe5b90600052602060002090600302016000015414156106415760068181548110151561061b57fe5b906000526020600020906003020160020160009054906101000a900460ff169150610653565b80806001019150506105d7565b600091505b50919050565b61066161107b565b600760009054906101000a900460ff16151561067c576106d0565b60058054806020026020016040519081016040528092919081815260200182805480156106c857602002820191906000526020600020905b8154815260200190600101908083116106b4575b505050505090505b90565b600080600090505b60038054905081101561072257826003828154811015156106f857fe5b906000526020600020906003020160000154141561071557610722565b80806001019150506106db565b600380549050811415915050919050565b600080600090505b60028054905081101561077c578260028281548110151561075857fe5b906000526020600020900154141561076f5761077c565b808060010191505061073b565b600280549050811415915050919050565b6000600760019054906101000a900473ffffffffffffffffffffffffffffffffffffffff1673ffffffffffffffffffffffffffffffffffffffff163373ffffffffffffffffffffffffffffffffffffffff161415156107eb57600080fd5b600090505b81518110156108b7576003805480600101828161080d919061108f565b91600052602060002090600302016000606060405190810160405280858152602001868681518110151561083d57fe5b90602001906020020151600019168152602001600081525090919091506000820151816000015560208201518160010190600019169055604082015181600201555050506004805480600101828161089591906110c1565b91600052602060002090016000839091909150555080806001019150506107f0565b6000600760006101000a81548160ff0219169083151502179055505050565b6000809054906101000a900473ffffffffffffffffffffffffffffffffffffffff1673ffffffffffffffffffffffffffffffffffffffff163373ffffffffffffffffffffffffffffffffffffffff1614151561093157600080fd5b80600760016101000a81548173ffffffffffffffffffffffffffffffffffffffff021916908373ffffffffffffffffffffffffffffffffffffffff16021790555050565b600760019054906101000a900473ffffffffffffffffffffffffffffffffffffffff1673ffffffffffffffffffffffffffffffffffffffff163373ffffffffffffffffffffffffffffffffffffffff161415156109d157600080fd5b8060088190555050565b6000600854905090565b6000809054906101000a900473ffffffffffffffffffffffffffffffffffffffff1681565b600080600383815481101515610a1c57fe5b9060005260206000209060030201600201548391509150915091565b6000809054906101000a900473ffffffffffffffffffffffffffffffffffffffff1673ffffffffffffffffffffffffffffffffffffffff163373ffffffffffffffffffffffffffffffffffffffff16141515610a9357600080fd5b610a9c82610733565b8015610aad5750610aac816106d3565b5b1515610ab857600080fd5b6001600083815260200190815260200160002060010160009054906101000a900460ff16151515610ae857600080fd5b60068054806001018281610afc91906110ed565b91600052602060002090600302016000606060405190810160405280868152602001858152602001600015158152509091909150600082015181600001556020820151816001015560408201518160020160006101000a81548160ff021916908315150217905550505050600180600084815260200190815260200160002060010160006101000a81548160ff0219169083151502179055505050565b6000600760019054906101000a900473ffffffffffffffffffffffffffffffffffffffff1673ffffffffffffffffffffffffffffffffffffffff163373ffffffffffffffffffffffffffffffffffffffff16141515610bf757600080fd5b600090505b8151811015610ce1578181815181101515610c1357fe5b90602001906020020151600160008484815181101515610c2f57fe5b906020019060200201518152602001908152602001600020600001819055506000600160008484815181101515610c6257fe5b90602001906020020151815260200190815260200160002060010160006101000a81548160ff02191690831515021790555060028054806001018281610ca891906110c1565b916000526020600020900160008484815181101515610cc357fe5b90602001906020020151909190915055508080600101915050610bfc565b5050565b6000600760019054906101000a900473ffffffffffffffffffffffffffffffffffffffff1673ffffffffffffffffffffffffffffffffffffffff163373ffffffffffffffffffffffffffffffffffffffff16141515610d4357600080fd5b600090505b600680549050811015610deb576003600682815481101515610d6657fe5b906000526020600020906003020160010154815481101515610d8457fe5b9060005260206000209060030201600201600081548092919060010191905055506001600682815481101515610db657fe5b906000526020600020906003020160020160006101000a81548160ff0219169083151502179055508080600101915050610d48565b6001600760006101000a81548160ff021916908315150217905550600090505b600380549050811015610e975760058054806001018281610e2c91906110c1565b91600052602060002090016000839091909150555060058054806001018281610e5591906110c1565b91600052602060002090016000600384815481101515610e7157fe5b906000526020600020906003020160020154909190915055508080600101915050610e0b565b50565b610ea261107b565b6004805480602002602001604051908101604052809291908181526020018280548015610eee57602002820191906000526020600020905b815481526020019060010190808311610eda575b5050505050905090565b600080600383815481101515610f0a57fe5b9060005260206000209060030201600101548391509150915091565b6000809054906101000a900473ffffffffffffffffffffffffffffffffffffffff1673ffffffffffffffffffffffffffffffffffffffff163373ffffffffffffffffffffffffffffffffffffffff16141515610f8157600080fd5b600073ffffffffffffffffffffffffffffffffffffffff168173ffffffffffffffffffffffffffffffffffffffff1614151515610fbd57600080fd5b8073ffffffffffffffffffffffffffffffffffffffff166000809054906101000a900473ffffffffffffffffffffffffffffffffffffffff1673ffffffffffffffffffffffffffffffffffffffff167f8be0079c531659141344cd1fd0a4f28419497f9722a3daafe3b4186f6b6457e060405160405180910390a3806000806101000a81548173ffffffffffffffffffffffffffffffffffffffff021916908373ffffffffffffffffffffffffffffffffffffffff16021790555050565b602060405190810160405280600081525090565b8154818355818115116110bc576003028160030283600052602060002091820191016110bb919061111f565b5b505050565b8154818355818115116110e8578183600052602060002091820191016110e79190611156565b5b505050565b81548183558181151161111a57600302816003028360005260206000209182019101611119919061117b565b5b505050565b61115391905b8082111561114f576000808201600090556001820160009055600282016000905550600301611125565b5090565b90565b61117891905b8082111561117457600081600090555060010161115c565b5090565b90565b6111bb91905b808211156111b75760008082016000905560018201600090556002820160006101000a81549060ff021916905550600301611181565b5090565b905600a165627a7a7230582018c48345c7dc699ca1ca4040f63b36f247fa1077032b3285f815480933c8f0030029",
  "source": "pragma solidity ^0.4.18;\r\n\r\nimport \"./ownable.sol\";\r\nimport \"./admin.sol\";\r\n\r\ncontract Ballot is Ownable {\r\n\r\n    struct Voter {\r\n        uint id; // like tc no\r\n        bool voted;  // if true, that person already voted\r\n    }\r\n\r\n    struct Candidate {\r\n        uint id;\r\n        bytes32 name;\r\n        uint voteCount;\r\n    }\r\n\r\n    struct Vote {\r\n        uint voterId; // Who voted\r\n        uint candidateId; // To who\r\n        bool counted; // Counted or not\r\n    }\r\n\r\n    // Voter map. id to Voter object\r\n    mapping (uint => Voter) private voters;\r\n    uint[] private votersKeys;\r\n\r\n    // Candidate array\r\n    Candidate[] private candidates;\r\n    uint[] private candidateIdList;\r\n    uint[] private results;\r\n\r\n    // Vote array\r\n    Vote[] private votes;\r\n\r\n    // Voting done or not\r\n    bool private counted;\r\n    \r\n    // Admin address\r\n    address private admin;\r\n    \r\n    // ID of the ballot\r\n    uint private ballotId;\r\n\r\n    function Ballot(address _adminAddress) public {\r\n        admin = _adminAddress;\r\n    }\r\n    \r\n    function setBallotId(uint _ballotId) public onlyAdmin {\r\n        ballotId = _ballotId;\r\n    }\r\n    \r\n    function getBallotId() public view returns (uint) {\r\n        return ballotId;\r\n    }\r\n    \r\n    // Function modifier to restrict function calls only to Admin\r\n    modifier onlyAdmin() {\r\n        require(msg.sender == admin);\r\n        _;\r\n    }\r\n    \r\n    function setAdmin(address adminAddress) public onlyOwner {\r\n        admin = adminAddress;\r\n    }\r\n\r\n    // Admin\r\n    function initializeCandidates(bytes32[] _candidates) public onlyAdmin {\r\n        for (uint i = 0; i < _candidates.length; i++) {\r\n            candidates.push(Candidate({\r\n                id: i, \r\n                name: _candidates[i], \r\n                voteCount: 0\r\n            }));\r\n            candidateIdList.push(i);\r\n        }\r\n        counted = false;\r\n    }\r\n\r\n    // Admin\r\n    function initializeVoters(uint[] _voters) public onlyAdmin {\r\n        for (uint i = 0; i < _voters.length; i++) {\r\n            voters[_voters[i]].id = _voters[i];\r\n            voters[_voters[i]].voted = false;\r\n            votersKeys.push(_voters[i]);\r\n        }\r\n    }\r\n\r\n    // User\r\n    function vote(uint _voterId, uint _candidateId) external onlyOwner {\r\n        // check if _voterId or _candidateId is exists\r\n        require(voterExists(_voterId) && candidateExists(_candidateId));\r\n\r\n        // terminate if voted\r\n        require(!voters[_voterId].voted);\r\n\r\n        // Create new vote\r\n        votes.push(Vote({\r\n                voterId: _voterId, \r\n                candidateId: _candidateId, \r\n                counted: false\r\n            }));\r\n\r\n        // Mark voter as voted\r\n        voters[_voterId].voted = true;\r\n    }\r\n\r\n    // Admin\r\n    function countVotes() public onlyAdmin {\r\n        // Update the votecount of candidates and mark votes counted\r\n        for (uint i = 0; i < votes.length; i++) {\r\n            candidates[votes[i].candidateId].voteCount++;\r\n            votes[i].counted = true;\r\n        }\r\n        counted = true;\r\n        // Fill the results array\r\n        for (i = 0; i < candidates.length; i++) {\r\n            results.push(i);\r\n            results.push(candidates[i].voteCount);\r\n        }\r\n    }\r\n\r\n    // Return the results of counting\r\n    function getResults() public view returns (uint[]) {\r\n        if (!counted) {\r\n            return;\r\n        } else {\r\n            return results;\r\n        }\r\n    }\r\n\r\n    // Voter's vote counted or not?\r\n    function validateVote(uint _voterId) public view returns (bool) {\r\n        for (uint i = 0; i < votes.length; i++) {\r\n            if (votes[i].voterId == _voterId) {\r\n                return votes[i].counted;\r\n            }\r\n        }\r\n        return false;\r\n    }\r\n\r\n    // Return candidate name associated with the given candidate id\r\n    function getCandidateName(uint _candidateId) public view returns (bytes32, uint) {\r\n        return (candidates[_candidateId].name, _candidateId);\r\n    }\r\n\r\n    // Return candidate name associated with the given candidate id\r\n    function getCandidateVoteCount(uint _candidateId) public view returns (uint, uint) {\r\n        return (candidates[_candidateId].voteCount, _candidateId);\r\n    }\r\n\r\n    // Return candidate id list\r\n    function getCandidateIdList() public view returns (uint[]) {\r\n        return candidateIdList;\r\n    }\r\n\r\n    // Return voters' keys\r\n    function getVotersKeys() public view returns (uint[]) {\r\n        return votersKeys;\r\n    }\r\n\r\n    // Return true if Voter associated with given voter id is exist\r\n    function voterExists(uint _voterId) public view returns (bool) {\r\n        uint i;\r\n        for (i = 0; i < votersKeys.length; i++) {\r\n            if (votersKeys[i] == _voterId) {\r\n                break;\r\n            }\r\n        }\r\n        return i != votersKeys.length;\r\n    }\r\n\r\n    // Return true if Candidate associated with given candidate id is exist\r\n    function candidateExists(uint _candidateId) public view returns (bool) {\r\n        uint i;\r\n        for (i = 0; i < candidates.length; i++) {\r\n            if (candidates[i].id == _candidateId) {\r\n                break;\r\n            }\r\n        }\r\n        return i != candidates.length;\r\n    }\r\n}\r\n",
  "sourcePath": "C:\\Users\\Berk\\voting\\contracts\\ballot.sol",
  "compiler": {
    "name": "solc",
    "version": "0.4.19+commit.c4cbbb05.Emscripten.clang"
  },
  "schemaVersion": "1.0.1",
  "updatedAt": "2018-05-11T00:27:56.424Z"
}