{
  "contractName": "Ballot",
  "abi": [
    {
      "constant": true,
      "inputs": [],
      "name": "owner",
      "outputs": [
        {
          "name": "",
          "type": "address"
        }
      ],
      "payable": false,
      "stateMutability": "view",
      "type": "function"
    },
    {
      "constant": false,
      "inputs": [
        {
          "name": "newOwner",
          "type": "address"
        }
      ],
      "name": "transferOwnership",
      "outputs": [],
      "payable": false,
      "stateMutability": "nonpayable",
      "type": "function"
    },
    {
      "anonymous": false,
      "inputs": [
        {
          "indexed": true,
          "name": "previousOwner",
          "type": "address"
        },
        {
          "indexed": true,
          "name": "newOwner",
          "type": "address"
        }
      ],
      "name": "OwnershipTransferred",
      "type": "event"
    },
    {
      "constant": false,
      "inputs": [
        {
          "name": "_ballotId",
          "type": "uint256"
        }
      ],
      "name": "setBallotId",
      "outputs": [],
      "payable": false,
      "stateMutability": "nonpayable",
      "type": "function"
    },
    {
      "constant": true,
      "inputs": [],
      "name": "getBallotId",
      "outputs": [
        {
          "name": "",
          "type": "uint256"
        }
      ],
      "payable": false,
      "stateMutability": "view",
      "type": "function"
    },
    {
      "constant": false,
      "inputs": [
        {
          "name": "adminAddress",
          "type": "address"
        }
      ],
      "name": "initializeAdmin",
      "outputs": [],
      "payable": false,
      "stateMutability": "nonpayable",
      "type": "function"
    },
    {
      "constant": false,
      "inputs": [
        {
          "name": "_candidates",
          "type": "bytes32[]"
        }
      ],
      "name": "initializeCandidates",
      "outputs": [],
      "payable": false,
      "stateMutability": "nonpayable",
      "type": "function"
    },
    {
      "constant": false,
      "inputs": [
        {
          "name": "_voters",
          "type": "uint256[]"
        }
      ],
      "name": "initializeVoters",
      "outputs": [],
      "payable": false,
      "stateMutability": "nonpayable",
      "type": "function"
    },
    {
      "constant": false,
      "inputs": [
        {
          "name": "_voterId",
          "type": "uint256"
        },
        {
          "name": "_candidateId",
          "type": "uint256"
        }
      ],
      "name": "vote",
      "outputs": [],
      "payable": false,
      "stateMutability": "nonpayable",
      "type": "function"
    },
    {
      "constant": false,
      "inputs": [],
      "name": "countVotes",
      "outputs": [],
      "payable": false,
      "stateMutability": "nonpayable",
      "type": "function"
    },
    {
      "constant": true,
      "inputs": [],
      "name": "getResults",
      "outputs": [
        {
          "name": "",
          "type": "uint256[]"
        }
      ],
      "payable": false,
      "stateMutability": "view",
      "type": "function"
    },
    {
      "constant": true,
      "inputs": [
        {
          "name": "_voterId",
          "type": "uint256"
        }
      ],
      "name": "validateVote",
      "outputs": [
        {
          "name": "",
          "type": "bool"
        }
      ],
      "payable": false,
      "stateMutability": "view",
      "type": "function"
    },
    {
      "constant": true,
      "inputs": [
        {
          "name": "_candidateId",
          "type": "uint256"
        }
      ],
      "name": "getCandidateName",
      "outputs": [
        {
          "name": "",
          "type": "bytes32"
        }
      ],
      "payable": false,
      "stateMutability": "view",
      "type": "function"
    },
    {
      "constant": true,
      "inputs": [],
      "name": "getCandidateIdList",
      "outputs": [
        {
          "name": "",
          "type": "uint256[]"
        }
      ],
      "payable": false,
      "stateMutability": "view",
      "type": "function"
    },
    {
      "constant": true,
      "inputs": [],
      "name": "getVotersKeys",
      "outputs": [
        {
          "name": "",
          "type": "uint256[]"
        }
      ],
      "payable": false,
      "stateMutability": "view",
      "type": "function"
    }
  ],
  "bytecode": "0x6060604052336000806101000a81548173ffffffffffffffffffffffffffffffffffffffff021916908373ffffffffffffffffffffffffffffffffffffffff1602179055506110dc806100536000396000f3006060604052600436106100d0576000357c0100000000000000000000000000000000000000000000000000000000900463ffffffff1680630d93ce87146100d55780634676debd1461013f5780634717f97c1461017a57806363bb6999146101e45780637553ee321461023e57806380f2ba1d14610277578063818d9f0f1461029a5780638da5cb5b146102c3578063b384abef14610318578063b5a131da14610344578063b647990a1461039e578063d328821a146103b3578063e13804a71461041d578063f2fde38b1461045c575b600080fd5b34156100e057600080fd5b6100e8610495565b6040518080602001828103825283818151815260200191508051906020019060200280838360005b8381101561012b578082015181840152602081019050610110565b505050509050019250505060405180910390f35b341561014a57600080fd5b61016060048080359060200190919050506104f3565b604051808215151515815260200191505060405180910390f35b341561018557600080fd5b61018d61057d565b6040518080602001828103825283818151815260200191508051906020019060200280838360005b838110156101d05780820151818401526020810190506101b5565b505050509050019250505060405180910390f35b34156101ef57600080fd5b61023c6004808035906020019082018035906020019080806020026020016040519081016040528093929190818152602001838360200280828437820191505050505050919050506105f7565b005b341561024957600080fd5b610275600480803573ffffffffffffffffffffffffffffffffffffffff16906020019091905050610740565b005b341561028257600080fd5b61029860048080359060200190919050506107df565b005b34156102a557600080fd5b6102ad610845565b6040518082815260200191505060405180910390f35b34156102ce57600080fd5b6102d661084f565b604051808273ffffffffffffffffffffffffffffffffffffffff1673ffffffffffffffffffffffffffffffffffffffff16815260200191505060405180910390f35b341561032357600080fd5b6103426004808035906020019091908035906020019091905050610874565b005b341561034f57600080fd5b61039c6004808035906020019082018035906020019080806020026020016040519081016040528093929190818152602001838360200280828437820191505050505050919050506109d5565b005b34156103a957600080fd5b6103b1610b21565b005b34156103be57600080fd5b6103c6610cd6565b6040518080602001828103825283818151815260200191508051906020019060200280838360005b838110156104095780820151818401526020810190506103ee565b505050509050019250505060405180910390f35b341561042857600080fd5b61043e6004808035906020019091905050610d34565b60405180826000191660001916815260200191505060405180910390f35b341561046757600080fd5b610493600480803573ffffffffffffffffffffffffffffffffffffffff16906020019091905050610d5e565b005b61049d610f6d565b60028054806020026020016040519081016040528092919081815260200182805480156104e957602002820191906000526020600020905b8154815260200190600101908083116104d5575b5050505050905090565b600080600090505b600680549050811015610572578260068281548110151561051857fe5b90600052602060002090600302016000015414156105655760068181548110151561053f57fe5b906000526020600020906003020160020160009054906101000a900460ff169150610577565b80806001019150506104fb565b600091505b50919050565b610585610f6d565b600760009054906101000a900460ff1615156105a0576105f4565b60058054806020026020016040519081016040528092919081815260200182805480156105ec57602002820191906000526020600020905b8154815260200190600101908083116105d8575b505050505090505b90565b6000600760019054906101000a900473ffffffffffffffffffffffffffffffffffffffff1673ffffffffffffffffffffffffffffffffffffffff163373ffffffffffffffffffffffffffffffffffffffff1614151561065557600080fd5b600090505b815181101561072157600380548060010182816106779190610f81565b9160005260206000209060030201600060606040519081016040528085815260200186868151811015156106a757fe5b9060200190602002015160001916815260200160008152509091909150600082015181600001556020820151816001019060001916905560408201518160020155505050600480548060010182816106ff9190610fb3565b916000526020600020900160008390919091505550808060010191505061065a565b6000600760006101000a81548160ff0219169083151502179055505050565b6000809054906101000a900473ffffffffffffffffffffffffffffffffffffffff1673ffffffffffffffffffffffffffffffffffffffff163373ffffffffffffffffffffffffffffffffffffffff1614151561079b57600080fd5b80600760016101000a81548173ffffffffffffffffffffffffffffffffffffffff021916908373ffffffffffffffffffffffffffffffffffffffff16021790555050565b600760019054906101000a900473ffffffffffffffffffffffffffffffffffffffff1673ffffffffffffffffffffffffffffffffffffffff163373ffffffffffffffffffffffffffffffffffffffff1614151561083b57600080fd5b8060088190555050565b6000600854905090565b6000809054906101000a900473ffffffffffffffffffffffffffffffffffffffff1681565b6000809054906101000a900473ffffffffffffffffffffffffffffffffffffffff1673ffffffffffffffffffffffffffffffffffffffff163373ffffffffffffffffffffffffffffffffffffffff161415156108cf57600080fd5b6108d882610eb3565b80156108e957506108e881610f0d565b5b15156108f457600080fd5b6001600083815260200190815260200160002060010160009054906101000a900460ff1615151561092457600080fd5b600680548060010182816109389190610fdf565b91600052602060002090600302016000606060405190810160405280868152602001858152602001600015158152509091909150600082015181600001556020820151816001015560408201518160020160006101000a81548160ff021916908315150217905550505050600180600084815260200190815260200160002060010160006101000a81548160ff0219169083151502179055505050565b6000600760019054906101000a900473ffffffffffffffffffffffffffffffffffffffff1673ffffffffffffffffffffffffffffffffffffffff163373ffffffffffffffffffffffffffffffffffffffff16141515610a3357600080fd5b600090505b8151811015610b1d578181815181101515610a4f57fe5b90602001906020020151600160008484815181101515610a6b57fe5b906020019060200201518152602001908152602001600020600001819055506000600160008484815181101515610a9e57fe5b90602001906020020151815260200190815260200160002060010160006101000a81548160ff02191690831515021790555060028054806001018281610ae49190610fb3565b916000526020600020900160008484815181101515610aff57fe5b90602001906020020151909190915055508080600101915050610a38565b5050565b6000600760019054906101000a900473ffffffffffffffffffffffffffffffffffffffff1673ffffffffffffffffffffffffffffffffffffffff163373ffffffffffffffffffffffffffffffffffffffff16141515610b7f57600080fd5b600090505b600680549050811015610c27576003600682815481101515610ba257fe5b906000526020600020906003020160010154815481101515610bc057fe5b9060005260206000209060030201600201600081548092919060010191905055506001600682815481101515610bf257fe5b906000526020600020906003020160020160006101000a81548160ff0219169083151502179055508080600101915050610b84565b6001600760006101000a81548160ff021916908315150217905550600090505b600380549050811015610cd35760058054806001018281610c689190610fb3565b91600052602060002090016000839091909150555060058054806001018281610c919190610fb3565b91600052602060002090016000600384815481101515610cad57fe5b906000526020600020906003020160020154909190915055508080600101915050610c47565b50565b610cde610f6d565b6004805480602002602001604051908101604052809291908181526020018280548015610d2a57602002820191906000526020600020905b815481526020019060010190808311610d16575b5050505050905090565b6000600382815481101515610d4557fe5b9060005260206000209060030201600101549050919050565b6000809054906101000a900473ffffffffffffffffffffffffffffffffffffffff1673ffffffffffffffffffffffffffffffffffffffff163373ffffffffffffffffffffffffffffffffffffffff16141515610db957600080fd5b600073ffffffffffffffffffffffffffffffffffffffff168173ffffffffffffffffffffffffffffffffffffffff1614151515610df557600080fd5b8073ffffffffffffffffffffffffffffffffffffffff166000809054906101000a900473ffffffffffffffffffffffffffffffffffffffff1673ffffffffffffffffffffffffffffffffffffffff167f8be0079c531659141344cd1fd0a4f28419497f9722a3daafe3b4186f6b6457e060405160405180910390a3806000806101000a81548173ffffffffffffffffffffffffffffffffffffffff021916908373ffffffffffffffffffffffffffffffffffffffff16021790555050565b600080600090505b600280549050811015610efc5782600282815481101515610ed857fe5b9060005260206000209001541415610eef57610efc565b8080600101915050610ebb565b600280549050811415915050919050565b600080600090505b600380549050811015610f5c5782600382815481101515610f3257fe5b9060005260206000209060030201600001541415610f4f57610f5c565b8080600101915050610f15565b600380549050811415915050919050565b602060405190810160405280600081525090565b815481835581811511610fae57600302816003028360005260206000209182019101610fad9190611011565b5b505050565b815481835581811511610fda57818360005260206000209182019101610fd99190611048565b5b505050565b81548183558181151161100c5760030281600302836000526020600020918201910161100b919061106d565b5b505050565b61104591905b80821115611041576000808201600090556001820160009055600282016000905550600301611017565b5090565b90565b61106a91905b8082111561106657600081600090555060010161104e565b5090565b90565b6110ad91905b808211156110a95760008082016000905560018201600090556002820160006101000a81549060ff021916905550600301611073565b5090565b905600a165627a7a723058206ead3ddbbdfbaa8fee2b36affe02678d5adfe05931a342579bc0d8917233688f0029",
  "source": "pragma solidity ^0.4.18;\r\n\r\nimport \"./ownable.sol\";\r\nimport \"./admin.sol\";\r\n\r\ncontract Ballot is Ownable {\r\n\r\n    struct Voter {\r\n        uint id; // like tc no\r\n        bool voted;  // if true, that person already voted\r\n    }\r\n\r\n    struct Candidate {\r\n        uint id;\r\n        bytes32 name;\r\n        uint voteCount;\r\n    }\r\n\r\n    struct Vote {\r\n        uint voterId; // Who voted\r\n        uint candidateId; // To who\r\n        bool counted; // Counted or not\r\n    }\r\n\r\n    // Voter map. id to Voter object\r\n    mapping (uint => Voter) private voters;\r\n    uint[] private votersKeys;\r\n\r\n    // Candidate array\r\n    Candidate[] private candidates;\r\n    uint[] private candidateIdList;\r\n    uint[] private results;\r\n\r\n    // Vote array\r\n    Vote[] private votes;\r\n\r\n    // Voting done or not\r\n    bool private counted;\r\n    \r\n    // Admin address\r\n    address private admin;\r\n    \r\n    // ID of the ballot\r\n    uint private ballotId;\r\n    \r\n    function setBallotId(uint _ballotId) public onlyAdmin {\r\n        ballotId = _ballotId;\r\n    }\r\n    \r\n    function getBallotId() public view returns (uint) {\r\n        return ballotId;\r\n    }\r\n    \r\n    // Function modifier to restrict function calls only to Admin\r\n    modifier onlyAdmin() {\r\n        require(msg.sender == admin);\r\n        _;\r\n    }\r\n    \r\n    function initializeAdmin(address adminAddress) public onlyOwner {\r\n        admin = adminAddress;\r\n    }\r\n\r\n    // Admin\r\n    function initializeCandidates(bytes32[] _candidates) public onlyAdmin {\r\n        for (uint i = 0; i < _candidates.length; i++) {\r\n            candidates.push(Candidate({\r\n                id: i, \r\n                name: _candidates[i], \r\n                voteCount: 0\r\n            }));\r\n            candidateIdList.push(i);\r\n        }\r\n        counted = false;\r\n    }\r\n\r\n    // Admin\r\n    function initializeVoters(uint[] _voters) public onlyAdmin {\r\n        for (uint i = 0; i < _voters.length; i++) {\r\n            voters[_voters[i]].id = _voters[i];\r\n            voters[_voters[i]].voted = false;\r\n            votersKeys.push(_voters[i]);\r\n        }\r\n    }\r\n\r\n    // User\r\n    function vote(uint _voterId, uint _candidateId) external onlyOwner {\r\n        // check if _voterId or _candidateId is exists\r\n        require(voterExists(_voterId) && candidateExists(_candidateId));\r\n\r\n        // terminate if voted\r\n        require(!voters[_voterId].voted);\r\n\r\n        // Create new vote\r\n        votes.push(Vote({\r\n                voterId: _voterId, \r\n                candidateId: _candidateId, \r\n                counted: false\r\n            }));\r\n\r\n        // Mark voter as voted\r\n        voters[_voterId].voted = true;\r\n    }\r\n\r\n    // Admin\r\n    function countVotes() public onlyAdmin {\r\n        // Update the votecount of candidates and mark votes counted\r\n        for (uint i = 0; i < votes.length; i++) {\r\n            candidates[votes[i].candidateId].voteCount++;\r\n            votes[i].counted = true;\r\n        }\r\n        counted = true;\r\n        // Fill the results array\r\n        for (i = 0; i < candidates.length; i++) {\r\n            results.push(i);\r\n            results.push(candidates[i].voteCount);\r\n        }\r\n    }\r\n\r\n    // Return the results of counting\r\n    function getResults() public view returns (uint[]) {\r\n        if (!counted) {\r\n            return;\r\n        } else {\r\n            return results;\r\n        }\r\n    }\r\n\r\n    // Voter's vote counted or not?\r\n    function validateVote(uint _voterId) public view returns (bool) {\r\n        for (uint i = 0; i < votes.length; i++) {\r\n            if (votes[i].voterId == _voterId) {\r\n                return votes[i].counted;\r\n            }\r\n        }\r\n        return false;\r\n    }\r\n\r\n    // Return candidate name associated with the given candidate id\r\n    function getCandidateName(uint _candidateId) public view returns (bytes32) {\r\n        return candidates[_candidateId].name;\r\n    }\r\n\r\n    // Return candidate id list\r\n    function getCandidateIdList() public view returns (uint[]) {\r\n        return candidateIdList;\r\n    }\r\n\r\n    // Return voters' keys\r\n    function getVotersKeys() public view returns (uint[]) {\r\n        return votersKeys;\r\n    }\r\n\r\n    // Return true if Voter associated with given voter id is exist\r\n    function voterExists(uint _voterId) private view returns (bool) {\r\n        uint i;\r\n        for (i = 0; i < votersKeys.length; i++) {\r\n            if (votersKeys[i] == _voterId) {\r\n                break;\r\n            }\r\n        }\r\n        return i != votersKeys.length;\r\n    }\r\n\r\n    // Return true if Candidate associated with given candidate id is exist\r\n    function candidateExists(uint _candidateId) private view returns (bool) {\r\n        uint i;\r\n        for (i = 0; i < candidates.length; i++) {\r\n            if (candidates[i].id == _candidateId) {\r\n                break;\r\n            }\r\n        }\r\n        return i != candidates.length;\r\n    }\r\n}\r\n",
  "sourcePath": "C:\\Users\\Berk\\voting\\contracts\\ballot.sol",
  "compiler": {
    "name": "solc",
    "version": "0.4.19+commit.c4cbbb05.Emscripten.clang"
  },
  "schemaVersion": "1.0.1",
  "updatedAt": "2018-05-02T20:51:17.228Z"
}